{
  "abi": [
    {
      "inputs": [
        {
          "internalType": "uint256",
          "name": "updateInterval",
          "type": "uint256"
        }
      ],
      "stateMutability": "nonpayable",
      "type": "constructor"
    },
    {
      "inputs": [
        {
          "internalType": "uint256",
          "name": "",
          "type": "uint256"
        }
      ],
      "name": "allowedTokens",
      "outputs": [
        {
          "internalType": "address",
          "name": "",
          "type": "address"
        }
      ],
      "stateMutability": "view",
      "type": "function"
    },
    {
      "inputs": [
        {
          "internalType": "bytes",
          "name": "checkData",
          "type": "bytes"
        }
      ],
      "name": "checkUpkeep",
      "outputs": [
        {
          "internalType": "bool",
          "name": "upkeepNeeded",
          "type": "bool"
        },
        {
          "internalType": "bytes",
          "name": "performData",
          "type": "bytes"
        }
      ],
      "stateMutability": "view",
      "type": "function"
    },
    {
      "inputs": [],
      "name": "counter",
      "outputs": [
        {
          "internalType": "uint256",
          "name": "",
          "type": "uint256"
        }
      ],
      "stateMutability": "view",
      "type": "function"
    },
    {
      "inputs": [
        {
          "internalType": "uint256",
          "name": "_amount",
          "type": "uint256"
        },
        {
          "internalType": "uint256",
          "name": "_dca_interval",
          "type": "uint256"
        },
        {
          "internalType": "address",
          "name": "token",
          "type": "address"
        }
      ],
      "name": "fundContract",
      "outputs": [],
      "stateMutability": "nonpayable",
      "type": "function"
    },
    {
      "inputs": [],
      "name": "interval",
      "outputs": [
        {
          "internalType": "uint256",
          "name": "",
          "type": "uint256"
        }
      ],
      "stateMutability": "view",
      "type": "function"
    },
    {
      "inputs": [],
      "name": "lastTimeStamp",
      "outputs": [
        {
          "internalType": "uint256",
          "name": "",
          "type": "uint256"
        }
      ],
      "stateMutability": "view",
      "type": "function"
    },
    {
      "inputs": [
        {
          "internalType": "bytes",
          "name": "performData",
          "type": "bytes"
        }
      ],
      "name": "performUpkeep",
      "outputs": [],
      "stateMutability": "nonpayable",
      "type": "function"
    },
    {
      "inputs": [
        {
          "internalType": "address",
          "name": "",
          "type": "address"
        },
        {
          "internalType": "address",
          "name": "",
          "type": "address"
        }
      ],
      "name": "stakingBalance",
      "outputs": [
        {
          "internalType": "uint256",
          "name": "",
          "type": "uint256"
        }
      ],
      "stateMutability": "view",
      "type": "function"
    },
    {
      "inputs": [
        {
          "internalType": "address",
          "name": "token",
          "type": "address"
        }
      ],
      "name": "tokenIsAllowed",
      "outputs": [
        {
          "internalType": "bool",
          "name": "",
          "type": "bool"
        }
      ],
      "stateMutability": "nonpayable",
      "type": "function"
    },
    {
      "inputs": [
        {
          "internalType": "address",
          "name": "",
          "type": "address"
        }
      ],
      "name": "user_to_amount",
      "outputs": [
        {
          "internalType": "uint256",
          "name": "",
          "type": "uint256"
        }
      ],
      "stateMutability": "view",
      "type": "function"
    },
    {
      "inputs": [
        {
          "internalType": "address",
          "name": "",
          "type": "address"
        }
      ],
      "name": "user_to_interval",
      "outputs": [
        {
          "internalType": "uint256",
          "name": "",
          "type": "uint256"
        }
      ],
      "stateMutability": "view",
      "type": "function"
    }
  ],
  "bytecode": "60a060405234801561001057600080fd5b5060405161069438038061069483398101604081905261002f9161003f565b6080524260015560008055610058565b60006020828403121561005157600080fd5b5051919050565b60805161061a61007a600039600081816101b70152610303015261061a6000f3fe608060405234801561001057600080fd5b50600436106100a95760003560e01c806361bc221a1161007157806361bc221a146101555780636c92a8001461015e5780636e04ff0d146101715780637bdb76b614610192578063947a36fb146101b2578063dd5b8467146101d957600080fd5b806329161a00146100ae5780633f3b3b27146100ec5780633f774675146100f55780634585e33b146101155780635e5f2e261461012a575b600080fd5b6100d96100bc3660046103fa565b600560209081526000928352604080842090915290825290205481565b6040519081526020015b60405180910390f35b6100d960015481565b6100d961010336600461042d565b60026020526000908152604090205481565b61012861012336600461044f565b6101fc565b005b61013d6101383660046104c1565b610215565b6040516001600160a01b0390911681526020016100e3565b6100d960005481565b61012861016c3660046104da565b61023f565b61018461017f36600461044f565b6102fd565b6040516100e392919061050f565b6100d96101a036600461042d565b60036020526000908152604090205481565b6100d97f000000000000000000000000000000000000000000000000000000000000000081565b6101ec6101e736600461042d565b610374565b60405190151581526020016100e3565b42600190815560005461020e91610584565b6000555050565b6004818154811061022557600080fd5b6000918252602090912001546001600160a01b0316905081565b600083116102895760405162461bcd60e51b81526020600482015260126024820152710616d6f756e742063616e6e6f7420626520360741b60448201526064015b60405180910390fd5b61029281610374565b6102de5760405162461bcd60e51b815260206004820152601d60248201527f546f6b656e2063757272656e746c792069736e277420616c6c6f7765640000006044820152606401610280565b5033600090815260026020908152604080832093909355600390522055565b600060607f000000000000000000000000000000000000000000000000000000000000000060015442610330919061059c565b11915083838080601f016020809104026020016040519081016040528093929190818152602001838380828437600092019190915250949792965091945050505050565b6000805b6004548110156103d557826001600160a01b03166004828154811061039f5761039f6105b3565b6000918252602090912001546001600160a01b031614156103c35750600192915050565b806103cd816105c9565b915050610378565b50600092915050565b80356001600160a01b03811681146103f557600080fd5b919050565b6000806040838503121561040d57600080fd5b610416836103de565b9150610424602084016103de565b90509250929050565b60006020828403121561043f57600080fd5b610448826103de565b9392505050565b6000806020838503121561046257600080fd5b823567ffffffffffffffff8082111561047a57600080fd5b818501915085601f83011261048e57600080fd5b81358181111561049d57600080fd5b8660208285010111156104af57600080fd5b60209290920196919550909350505050565b6000602082840312156104d357600080fd5b5035919050565b6000806000606084860312156104ef57600080fd5b8335925060208401359150610506604085016103de565b90509250925092565b821515815260006020604081840152835180604085015260005b8181101561054557858101830151858201606001528201610529565b81811115610557576000606083870101525b50601f01601f191692909201606001949350505050565b634e487b7160e01b600052601160045260246000fd5b600082198211156105975761059761056e565b500190565b6000828210156105ae576105ae61056e565b500390565b634e487b7160e01b600052603260045260246000fd5b60006000198214156105dd576105dd61056e565b506001019056fea2646970667358221220d032503efc3de55867e102b281163ead37b35b7e437118bd933dd0c2d57e3ce264736f6c63430008090033",
  "bytecodeSha1": "7554f0b908f21b397069d4c8e84d7f8077f12e63",
  "compiler": {
    "evm_version": "istanbul",
    "optimizer": {
      "enabled": true,
      "runs": 200
    },
    "version": "0.8.9+commit.e5eed63a"
  },
  "contractName": "Counter",
  "language": "Solidity",
  "natspec": {
    "kind": "dev",
    "methods": {},
    "version": 1
  },
  "opcodes": "PUSH1 0x80 PUSH1 0x40 MSTORE CALLVALUE DUP1 ISZERO PUSH2 0x10 JUMPI PUSH1 0x0 DUP1 REVERT JUMPDEST POP PUSH1 0x4 CALLDATASIZE LT PUSH2 0xA9 JUMPI PUSH1 0x0 CALLDATALOAD PUSH1 0xE0 SHR DUP1 PUSH4 0x61BC221A GT PUSH2 0x71 JUMPI DUP1 PUSH4 0x61BC221A EQ PUSH2 0x155 JUMPI DUP1 PUSH4 0x6C92A800 EQ PUSH2 0x15E JUMPI DUP1 PUSH4 0x6E04FF0D EQ PUSH2 0x171 JUMPI DUP1 PUSH4 0x7BDB76B6 EQ PUSH2 0x192 JUMPI DUP1 PUSH4 0x947A36FB EQ PUSH2 0x1B2 JUMPI DUP1 PUSH4 0xDD5B8467 EQ PUSH2 0x1D9 JUMPI PUSH1 0x0 DUP1 REVERT JUMPDEST DUP1 PUSH4 0x29161A00 EQ PUSH2 0xAE JUMPI DUP1 PUSH4 0x3F3B3B27 EQ PUSH2 0xEC JUMPI DUP1 PUSH4 0x3F774675 EQ PUSH2 0xF5 JUMPI DUP1 PUSH4 0x4585E33B EQ PUSH2 0x115 JUMPI DUP1 PUSH4 0x5E5F2E26 EQ PUSH2 0x12A JUMPI JUMPDEST PUSH1 0x0 DUP1 REVERT JUMPDEST PUSH2 0xD9 PUSH2 0xBC CALLDATASIZE PUSH1 0x4 PUSH2 0x3FA JUMP JUMPDEST PUSH1 0x5 PUSH1 0x20 SWAP1 DUP2 MSTORE PUSH1 0x0 SWAP3 DUP4 MSTORE PUSH1 0x40 DUP1 DUP5 KECCAK256 SWAP1 SWAP2 MSTORE SWAP1 DUP3 MSTORE SWAP1 KECCAK256 SLOAD DUP2 JUMP JUMPDEST PUSH1 0x40 MLOAD SWAP1 DUP2 MSTORE PUSH1 0x20 ADD JUMPDEST PUSH1 0x40 MLOAD DUP1 SWAP2 SUB SWAP1 RETURN JUMPDEST PUSH2 0xD9 PUSH1 0x1 SLOAD DUP2 JUMP JUMPDEST PUSH2 0xD9 PUSH2 0x103 CALLDATASIZE PUSH1 0x4 PUSH2 0x42D JUMP JUMPDEST PUSH1 0x2 PUSH1 0x20 MSTORE PUSH1 0x0 SWAP1 DUP2 MSTORE PUSH1 0x40 SWAP1 KECCAK256 SLOAD DUP2 JUMP JUMPDEST PUSH2 0x128 PUSH2 0x123 CALLDATASIZE PUSH1 0x4 PUSH2 0x44F JUMP JUMPDEST PUSH2 0x1FC JUMP JUMPDEST STOP JUMPDEST PUSH2 0x13D PUSH2 0x138 CALLDATASIZE PUSH1 0x4 PUSH2 0x4C1 JUMP JUMPDEST PUSH2 0x215 JUMP JUMPDEST PUSH1 0x40 MLOAD PUSH1 0x1 PUSH1 0x1 PUSH1 0xA0 SHL SUB SWAP1 SWAP2 AND DUP2 MSTORE PUSH1 0x20 ADD PUSH2 0xE3 JUMP JUMPDEST PUSH2 0xD9 PUSH1 0x0 SLOAD DUP2 JUMP JUMPDEST PUSH2 0x128 PUSH2 0x16C CALLDATASIZE PUSH1 0x4 PUSH2 0x4DA JUMP JUMPDEST PUSH2 0x23F JUMP JUMPDEST PUSH2 0x184 PUSH2 0x17F CALLDATASIZE PUSH1 0x4 PUSH2 0x44F JUMP JUMPDEST PUSH2 0x2FD JUMP JUMPDEST PUSH1 0x40 MLOAD PUSH2 0xE3 SWAP3 SWAP2 SWAP1 PUSH2 0x50F JUMP JUMPDEST PUSH2 0xD9 PUSH2 0x1A0 CALLDATASIZE PUSH1 0x4 PUSH2 0x42D JUMP JUMPDEST PUSH1 0x3 PUSH1 0x20 MSTORE PUSH1 0x0 SWAP1 DUP2 MSTORE PUSH1 0x40 SWAP1 KECCAK256 SLOAD DUP2 JUMP JUMPDEST PUSH2 0xD9 PUSH32 0x0 DUP2 JUMP JUMPDEST PUSH2 0x1EC PUSH2 0x1E7 CALLDATASIZE PUSH1 0x4 PUSH2 0x42D JUMP JUMPDEST PUSH2 0x374 JUMP JUMPDEST PUSH1 0x40 MLOAD SWAP1 ISZERO ISZERO DUP2 MSTORE PUSH1 0x20 ADD PUSH2 0xE3 JUMP JUMPDEST TIMESTAMP PUSH1 0x1 SWAP1 DUP2 SSTORE PUSH1 0x0 SLOAD PUSH2 0x20E SWAP2 PUSH2 0x584 JUMP JUMPDEST PUSH1 0x0 SSTORE POP POP JUMP JUMPDEST PUSH1 0x4 DUP2 DUP2 SLOAD DUP2 LT PUSH2 0x225 JUMPI PUSH1 0x0 DUP1 REVERT JUMPDEST PUSH1 0x0 SWAP2 DUP3 MSTORE PUSH1 0x20 SWAP1 SWAP2 KECCAK256 ADD SLOAD PUSH1 0x1 PUSH1 0x1 PUSH1 0xA0 SHL SUB AND SWAP1 POP DUP2 JUMP JUMPDEST PUSH1 0x0 DUP4 GT PUSH2 0x289 JUMPI PUSH1 0x40 MLOAD PUSH3 0x461BCD PUSH1 0xE5 SHL DUP2 MSTORE PUSH1 0x20 PUSH1 0x4 DUP3 ADD MSTORE PUSH1 0x12 PUSH1 0x24 DUP3 ADD MSTORE PUSH18 0x616D6F756E742063616E6E6F74206265203 PUSH1 0x74 SHL PUSH1 0x44 DUP3 ADD MSTORE PUSH1 0x64 ADD JUMPDEST PUSH1 0x40 MLOAD DUP1 SWAP2 SUB SWAP1 REVERT JUMPDEST PUSH2 0x292 DUP2 PUSH2 0x374 JUMP JUMPDEST PUSH2 0x2DE JUMPI PUSH1 0x40 MLOAD PUSH3 0x461BCD PUSH1 0xE5 SHL DUP2 MSTORE PUSH1 0x20 PUSH1 0x4 DUP3 ADD MSTORE PUSH1 0x1D PUSH1 0x24 DUP3 ADD MSTORE PUSH32 0x546F6B656E2063757272656E746C792069736E277420616C6C6F776564000000 PUSH1 0x44 DUP3 ADD MSTORE PUSH1 0x64 ADD PUSH2 0x280 JUMP JUMPDEST POP CALLER PUSH1 0x0 SWAP1 DUP2 MSTORE PUSH1 0x2 PUSH1 0x20 SWAP1 DUP2 MSTORE PUSH1 0x40 DUP1 DUP4 KECCAK256 SWAP4 SWAP1 SWAP4 SSTORE PUSH1 0x3 SWAP1 MSTORE KECCAK256 SSTORE JUMP JUMPDEST PUSH1 0x0 PUSH1 0x60 PUSH32 0x0 PUSH1 0x1 SLOAD TIMESTAMP PUSH2 0x330 SWAP2 SWAP1 PUSH2 0x59C JUMP JUMPDEST GT SWAP2 POP DUP4 DUP4 DUP1 DUP1 PUSH1 0x1F ADD PUSH1 0x20 DUP1 SWAP2 DIV MUL PUSH1 0x20 ADD PUSH1 0x40 MLOAD SWAP1 DUP2 ADD PUSH1 0x40 MSTORE DUP1 SWAP4 SWAP3 SWAP2 SWAP1 DUP2 DUP2 MSTORE PUSH1 0x20 ADD DUP4 DUP4 DUP1 DUP3 DUP5 CALLDATACOPY PUSH1 0x0 SWAP3 ADD SWAP2 SWAP1 SWAP2 MSTORE POP SWAP5 SWAP8 SWAP3 SWAP7 POP SWAP2 SWAP5 POP POP POP POP POP JUMP JUMPDEST PUSH1 0x0 DUP1 JUMPDEST PUSH1 0x4 SLOAD DUP2 LT ISZERO PUSH2 0x3D5 JUMPI DUP3 PUSH1 0x1 PUSH1 0x1 PUSH1 0xA0 SHL SUB AND PUSH1 0x4 DUP3 DUP2 SLOAD DUP2 LT PUSH2 0x39F JUMPI PUSH2 0x39F PUSH2 0x5B3 JUMP JUMPDEST PUSH1 0x0 SWAP2 DUP3 MSTORE PUSH1 0x20 SWAP1 SWAP2 KECCAK256 ADD SLOAD PUSH1 0x1 PUSH1 0x1 PUSH1 0xA0 SHL SUB AND EQ ISZERO PUSH2 0x3C3 JUMPI POP PUSH1 0x1 SWAP3 SWAP2 POP POP JUMP JUMPDEST DUP1 PUSH2 0x3CD DUP2 PUSH2 0x5C9 JUMP JUMPDEST SWAP2 POP POP PUSH2 0x378 JUMP JUMPDEST POP PUSH1 0x0 SWAP3 SWAP2 POP POP JUMP JUMPDEST DUP1 CALLDATALOAD PUSH1 0x1 PUSH1 0x1 PUSH1 0xA0 SHL SUB DUP2 AND DUP2 EQ PUSH2 0x3F5 JUMPI PUSH1 0x0 DUP1 REVERT JUMPDEST SWAP2 SWAP1 POP JUMP JUMPDEST PUSH1 0x0 DUP1 PUSH1 0x40 DUP4 DUP6 SUB SLT ISZERO PUSH2 0x40D JUMPI PUSH1 0x0 DUP1 REVERT JUMPDEST PUSH2 0x416 DUP4 PUSH2 0x3DE JUMP JUMPDEST SWAP2 POP PUSH2 0x424 PUSH1 0x20 DUP5 ADD PUSH2 0x3DE JUMP JUMPDEST SWAP1 POP SWAP3 POP SWAP3 SWAP1 POP JUMP JUMPDEST PUSH1 0x0 PUSH1 0x20 DUP3 DUP5 SUB SLT ISZERO PUSH2 0x43F JUMPI PUSH1 0x0 DUP1 REVERT JUMPDEST PUSH2 0x448 DUP3 PUSH2 0x3DE JUMP JUMPDEST SWAP4 SWAP3 POP POP POP JUMP JUMPDEST PUSH1 0x0 DUP1 PUSH1 0x20 DUP4 DUP6 SUB SLT ISZERO PUSH2 0x462 JUMPI PUSH1 0x0 DUP1 REVERT JUMPDEST DUP3 CALLDATALOAD PUSH8 0xFFFFFFFFFFFFFFFF DUP1 DUP3 GT ISZERO PUSH2 0x47A JUMPI PUSH1 0x0 DUP1 REVERT JUMPDEST DUP2 DUP6 ADD SWAP2 POP DUP6 PUSH1 0x1F DUP4 ADD SLT PUSH2 0x48E JUMPI PUSH1 0x0 DUP1 REVERT JUMPDEST DUP2 CALLDATALOAD DUP2 DUP2 GT ISZERO PUSH2 0x49D JUMPI PUSH1 0x0 DUP1 REVERT JUMPDEST DUP7 PUSH1 0x20 DUP3 DUP6 ADD ADD GT ISZERO PUSH2 0x4AF JUMPI PUSH1 0x0 DUP1 REVERT JUMPDEST PUSH1 0x20 SWAP3 SWAP1 SWAP3 ADD SWAP7 SWAP2 SWAP6 POP SWAP1 SWAP4 POP POP POP POP JUMP JUMPDEST PUSH1 0x0 PUSH1 0x20 DUP3 DUP5 SUB SLT ISZERO PUSH2 0x4D3 JUMPI PUSH1 0x0 DUP1 REVERT JUMPDEST POP CALLDATALOAD SWAP2 SWAP1 POP JUMP JUMPDEST PUSH1 0x0 DUP1 PUSH1 0x0 PUSH1 0x60 DUP5 DUP7 SUB SLT ISZERO PUSH2 0x4EF JUMPI PUSH1 0x0 DUP1 REVERT JUMPDEST DUP4 CALLDATALOAD SWAP3 POP PUSH1 0x20 DUP5 ADD CALLDATALOAD SWAP2 POP PUSH2 0x506 PUSH1 0x40 DUP6 ADD PUSH2 0x3DE JUMP JUMPDEST SWAP1 POP SWAP3 POP SWAP3 POP SWAP3 JUMP JUMPDEST DUP3 ISZERO ISZERO DUP2 MSTORE PUSH1 0x0 PUSH1 0x20 PUSH1 0x40 DUP2 DUP5 ADD MSTORE DUP4 MLOAD DUP1 PUSH1 0x40 DUP6 ADD MSTORE PUSH1 0x0 JUMPDEST DUP2 DUP2 LT ISZERO PUSH2 0x545 JUMPI DUP6 DUP2 ADD DUP4 ADD MLOAD DUP6 DUP3 ADD PUSH1 0x60 ADD MSTORE DUP3 ADD PUSH2 0x529 JUMP JUMPDEST DUP2 DUP2 GT ISZERO PUSH2 0x557 JUMPI PUSH1 0x0 PUSH1 0x60 DUP4 DUP8 ADD ADD MSTORE JUMPDEST POP PUSH1 0x1F ADD PUSH1 0x1F NOT AND SWAP3 SWAP1 SWAP3 ADD PUSH1 0x60 ADD SWAP5 SWAP4 POP POP POP POP JUMP JUMPDEST PUSH4 0x4E487B71 PUSH1 0xE0 SHL PUSH1 0x0 MSTORE PUSH1 0x11 PUSH1 0x4 MSTORE PUSH1 0x24 PUSH1 0x0 REVERT JUMPDEST PUSH1 0x0 DUP3 NOT DUP3 GT ISZERO PUSH2 0x597 JUMPI PUSH2 0x597 PUSH2 0x56E JUMP JUMPDEST POP ADD SWAP1 JUMP JUMPDEST PUSH1 0x0 DUP3 DUP3 LT ISZERO PUSH2 0x5AE JUMPI PUSH2 0x5AE PUSH2 0x56E JUMP JUMPDEST POP SUB SWAP1 JUMP JUMPDEST PUSH4 0x4E487B71 PUSH1 0xE0 SHL PUSH1 0x0 MSTORE PUSH1 0x32 PUSH1 0x4 MSTORE PUSH1 0x24 PUSH1 0x0 REVERT JUMPDEST PUSH1 0x0 PUSH1 0x0 NOT DUP3 EQ ISZERO PUSH2 0x5DD JUMPI PUSH2 0x5DD PUSH2 0x56E JUMP JUMPDEST POP PUSH1 0x1 ADD SWAP1 JUMP INVALID LOG2 PUSH5 0x6970667358 0x22 SLT KECCAK256 0xD0 ORIGIN POP RETURNDATACOPY 0xFC RETURNDATASIZE 0xE5 PC PUSH8 0xE102B281163EAD37 0xB3 JUMPDEST PUSH31 0x437118BD933DD0C2D57E3CE264736F6C634300080900330000000000000000 ",
  "sha1": "ee89e28e5dc69b7ba603c93b2e7e5a323f2c04da",
  "source": "// SPDX-License-Identifier: MIT\npragma solidity ^0.8.0;\n\ninterface KeeperCompatibleInterface {\n    function checkUpkeep(bytes calldata checkData)\n        external\n        returns (bool upkeepNeeded, bytes memory performData);\n\n    function performUpkeep(bytes calldata performData) external;\n}\n\ncontract Counter is KeeperCompatibleInterface {\n    uint256 public counter; // Public counter variable\n\n    // Use an interval in seconds and a timestamp to slow execution of Upkeep\n    uint256 public immutable interval;\n    uint256 public lastTimeStamp;\n    mapping(address => uint256) public user_to_interval;\n    mapping(address => uint256) public user_to_amount;\n    address[] public allowedTokens;\n    mapping(address => mapping(address => uint256)) public stakingBalance;\n\n    constructor(uint256 updateInterval) {\n        interval = updateInterval;\n        lastTimeStamp = block.timestamp;\n        counter = 0;\n    }\n\n    function tokenIsAllowed(address token) public returns (bool) {\n        for (\n            uint256 allowedTokensIndex = 0;\n            allowedTokensIndex < allowedTokens.length;\n            allowedTokensIndex++\n        ) {\n            if (allowedTokens[allowedTokensIndex] == token) {\n                return true;\n            }\n        }\n        return false;\n    }\n\n    function fundContract(\n        uint256 _amount,\n        uint256 _dca_interval,\n        address token\n    ) public {\n        // Require amount greater than 0\n        require(_amount > 0, \"amount cannot be 0\");\n        require(tokenIsAllowed(token), \"Token currently isn't allowed\");\n        user_to_interval[msg.sender] = _dca_interval;\n        user_to_amount[msg.sender] = _amount;\n    }\n\n    function checkUpkeep(bytes calldata checkData)\n        external\n        view\n        override\n        returns (bool upkeepNeeded, bytes memory performData)\n    {\n        upkeepNeeded = (block.timestamp - lastTimeStamp) > interval;\n        performData = checkData;\n    }\n\n    function performUpkeep(bytes calldata performData) external override {\n        lastTimeStamp = block.timestamp;\n        counter = counter + 1;\n        performData;\n        // do stuff with user -> interval and user -> amount here\n    }\n}\n",
  "sourcePath": "contracts/Counter.sol",
  "type": "contract"
}