{
  "abi": [
    {
      "inputs": [
        {
          "internalType": "uint256",
          "name": "_minimumUpkeepInterval",
          "type": "uint256"
        },
        {
          "internalType": "contract IUniswapV2Router02",
          "name": "_exchangeRouter",
          "type": "address"
        }
      ],
      "stateMutability": "nonpayable",
      "type": "constructor"
    },
    {
      "anonymous": false,
      "inputs": [
        {
          "indexed": true,
          "internalType": "address",
          "name": "previousOwner",
          "type": "address"
        },
        {
          "indexed": true,
          "internalType": "address",
          "name": "newOwner",
          "type": "address"
        }
      ],
      "name": "OwnershipTransferred",
      "type": "event"
    },
    {
      "anonymous": false,
      "inputs": [
        {
          "indexed": false,
          "internalType": "address",
          "name": "sellToken",
          "type": "address"
        },
        {
          "indexed": false,
          "internalType": "address",
          "name": "buyToken",
          "type": "address"
        },
        {
          "indexed": false,
          "internalType": "uint256",
          "name": "sellAmount",
          "type": "uint256"
        },
        {
          "indexed": false,
          "internalType": "uint256",
          "name": "interval",
          "type": "uint256"
        },
        {
          "indexed": false,
          "internalType": "uint256",
          "name": "startTimestamp",
          "type": "uint256"
        }
      ],
      "name": "RecurringOrderUpdated",
      "type": "event"
    },
    {
      "anonymous": false,
      "inputs": [
        {
          "indexed": false,
          "internalType": "bytes32",
          "name": "tokenPairHash",
          "type": "bytes32"
        },
        {
          "indexed": false,
          "internalType": "bytes32",
          "name": "orderHash",
          "type": "bytes32"
        }
      ],
      "name": "SwapFailed",
      "type": "event"
    },
    {
      "anonymous": false,
      "inputs": [
        {
          "indexed": false,
          "internalType": "bytes32",
          "name": "tokenPairHash",
          "type": "bytes32"
        },
        {
          "indexed": false,
          "internalType": "bytes32",
          "name": "orderHash",
          "type": "bytes32"
        }
      ],
      "name": "SwapSucceeded",
      "type": "event"
    },
    {
      "anonymous": false,
      "inputs": [
        {
          "indexed": false,
          "internalType": "address",
          "name": "sellToken",
          "type": "address"
        },
        {
          "indexed": false,
          "internalType": "address",
          "name": "buyToken",
          "type": "address"
        }
      ],
      "name": "TokenPairCreated",
      "type": "event"
    },
    {
      "inputs": [
        {
          "internalType": "bytes",
          "name": "",
          "type": "bytes"
        }
      ],
      "name": "checkUpkeep",
      "outputs": [
        {
          "internalType": "bool",
          "name": "upkeepNeeded",
          "type": "bool"
        },
        {
          "internalType": "bytes",
          "name": "performData",
          "type": "bytes"
        }
      ],
      "stateMutability": "view",
      "type": "function"
    },
    {
      "inputs": [
        {
          "internalType": "bytes32",
          "name": "_tokenPairHash",
          "type": "bytes32"
        },
        {
          "internalType": "bytes32",
          "name": "_orderHash",
          "type": "bytes32"
        }
      ],
      "name": "deleteRecurringOrder",
      "outputs": [],
      "stateMutability": "nonpayable",
      "type": "function"
    },
    {
      "inputs": [],
      "name": "exchangeRouter",
      "outputs": [
        {
          "internalType": "contract IUniswapV2Router02",
          "name": "",
          "type": "address"
        }
      ],
      "stateMutability": "view",
      "type": "function"
    },
    {
      "inputs": [
        {
          "internalType": "bytes32",
          "name": "_tokenPairHash",
          "type": "bytes32"
        },
        {
          "internalType": "bytes32",
          "name": "_orderHash",
          "type": "bytes32"
        }
      ],
      "name": "getOrderData",
      "outputs": [
        {
          "components": [
            {
              "internalType": "address",
              "name": "user",
              "type": "address"
            },
            {
              "internalType": "uint256",
              "name": "sellAmount",
              "type": "uint256"
            },
            {
              "internalType": "uint256",
              "name": "lastExecution",
              "type": "uint256"
            },
            {
              "internalType": "uint256",
              "name": "interval",
              "type": "uint256"
            }
          ],
          "internalType": "struct Trickle.RecurringOrder",
          "name": "",
          "type": "tuple"
        }
      ],
      "stateMutability": "view",
      "type": "function"
    },
    {
      "inputs": [
        {
          "internalType": "address",
          "name": "_user",
          "type": "address"
        },
        {
          "internalType": "bytes32",
          "name": "_tokenPairHash",
          "type": "bytes32"
        }
      ],
      "name": "getOrders",
      "outputs": [
        {
          "internalType": "bytes32[]",
          "name": "",
          "type": "bytes32[]"
        }
      ],
      "stateMutability": "view",
      "type": "function"
    },
    {
      "inputs": [
        {
          "internalType": "bytes32",
          "name": "_tokenPairHash",
          "type": "bytes32"
        }
      ],
      "name": "getTokenPairData",
      "outputs": [
        {
          "internalType": "address",
          "name": "",
          "type": "address"
        },
        {
          "internalType": "address",
          "name": "",
          "type": "address"
        }
      ],
      "stateMutability": "view",
      "type": "function"
    },
    {
      "inputs": [
        {
          "internalType": "address",
          "name": "_user",
          "type": "address"
        }
      ],
      "name": "getTokenPairs",
      "outputs": [
        {
          "internalType": "bytes32[]",
          "name": "",
          "type": "bytes32[]"
        }
      ],
      "stateMutability": "view",
      "type": "function"
    },
    {
      "inputs": [],
      "name": "minimumUpkeepInterval",
      "outputs": [
        {
          "internalType": "uint256",
          "name": "",
          "type": "uint256"
        }
      ],
      "stateMutability": "view",
      "type": "function"
    },
    {
      "inputs": [],
      "name": "owner",
      "outputs": [
        {
          "internalType": "address",
          "name": "",
          "type": "address"
        }
      ],
      "stateMutability": "view",
      "type": "function"
    },
    {
      "inputs": [
        {
          "internalType": "bytes",
          "name": "performData",
          "type": "bytes"
        }
      ],
      "name": "performUpkeep",
      "outputs": [],
      "stateMutability": "nonpayable",
      "type": "function"
    },
    {
      "inputs": [],
      "name": "renounceOwnership",
      "outputs": [],
      "stateMutability": "nonpayable",
      "type": "function"
    },
    {
      "inputs": [
        {
          "internalType": "address",
          "name": "_sellToken",
          "type": "address"
        },
        {
          "internalType": "address",
          "name": "_buyToken",
          "type": "address"
        },
        {
          "internalType": "uint256",
          "name": "_sellAmount",
          "type": "uint256"
        },
        {
          "internalType": "uint256",
          "name": "_interval",
          "type": "uint256"
        }
      ],
      "name": "setRecurringOrder",
      "outputs": [],
      "stateMutability": "nonpayable",
      "type": "function"
    },
    {
      "inputs": [
        {
          "internalType": "address",
          "name": "_sellToken",
          "type": "address"
        },
        {
          "internalType": "address",
          "name": "_buyToken",
          "type": "address"
        },
        {
          "internalType": "uint256",
          "name": "_sellAmount",
          "type": "uint256"
        },
        {
          "internalType": "uint256",
          "name": "_interval",
          "type": "uint256"
        },
        {
          "internalType": "uint256",
          "name": "_startTimestamp",
          "type": "uint256"
        }
      ],
      "name": "setRecurringOrderWithStartTimestamp",
      "outputs": [],
      "stateMutability": "nonpayable",
      "type": "function"
    },
    {
      "inputs": [
        {
          "internalType": "contract IERC20",
          "name": "_tokenIn",
          "type": "address"
        },
        {
          "internalType": "contract IERC20",
          "name": "_tokenOut",
          "type": "address"
        },
        {
          "internalType": "uint256",
          "name": "_amountIn",
          "type": "uint256"
        },
        {
          "internalType": "address",
          "name": "_user",
          "type": "address"
        }
      ],
      "name": "swapExactTokensForTokens",
      "outputs": [
        {
          "internalType": "bool",
          "name": "",
          "type": "bool"
        }
      ],
      "stateMutability": "nonpayable",
      "type": "function"
    },
    {
      "inputs": [
        {
          "internalType": "address",
          "name": "newOwner",
          "type": "address"
        }
      ],
      "name": "transferOwnership",
      "outputs": [],
      "stateMutability": "nonpayable",
      "type": "function"
    }
  ],
  "bytecode": "608060405234801561001057600080fd5b5060405162001c8b38038062001c8b833981016040819052610031916100bb565b60016000558061004033610069565b600280546001600160a01b0319166001600160a01b0392909216919091179055506008556100f8565b600180546001600160a01b038381166001600160a01b0319831681179093556040519116919082907f8be0079c531659141344cd1fd0a4f28419497f9722a3daafe3b4186f6b6457e090600090a35050565b600080604083850312156100ce57600080fd5b825160208401519092506001600160a01b03811681146100ed57600080fd5b809150509250929050565b611b8380620001086000396000f3fe608060405234801561001057600080fd5b50600436106100f55760003560e01c8063790fc5fb1161009757806396f10b271161006657806396f10b2714610238578063ad4207c81461028d578063c7c6ab04146102b0578063f2fde38b146102c357600080fd5b8063790fc5fb146101ea57806389c952a3146102015780638bd9de58146102145780638da5cb5b1461022757600080fd5b80634585e33b116100d35780634585e33b1461019957806357819593146101ae5780636e04ff0d146101c1578063715018a6146101e257600080fd5b80631cb85818146100fa57806323d16e811461012a5780632d57b18514610179575b600080fd5b60025461010d906001600160a01b031681565b6040516001600160a01b0390911681526020015b60405180910390f35b61013d610138366004611486565b6102d6565b604051610121919081516001600160a01b0316815260208083015190820152604080830151908201526060918201519181019190915260800190565b61018c6101873660046114bd565b6103c2565b60405161012191906114da565b6101ac6101a736600461151e565b610494565b005b6101ac6101bc366004611590565b6104ba565b6101d46101cf36600461151e565b61083f565b6040516101219291906115e1565b6101ac610ab5565b6101f360085481565b604051908152602001610121565b6101ac61020f366004611486565b610b1b565b6101ac610222366004611640565b610c0b565b6001546001600160a01b031661010d565b61026d610246366004611686565b600090815260056020526040902080546001909101546001600160a01b0391821692911690565b604080516001600160a01b03938416815292909116602083015201610121565b6102a061029b36600461169f565b610c19565b6040519015158152602001610121565b61018c6102be3660046116f2565b610ed0565b6101ac6102d13660046114bd565b610fb9565b61030a604051806080016040528060006001600160a01b031681526020016000815260200160008152602001600081525090565b60008381526005602052604090206103256003820184611084565b61036d5760405162461bcd60e51b815260206004820152601460248201527313d4911154881113d154c81393d50811561254d560621b60448201526064015b60405180910390fd5b600083815260029182016020908152604091829020825160808101845281546001600160a01b031681526001820154928101929092529283015491810191909152600390910154606082015290505b92915050565b6001600160a01b0381166000908152600360205260408120606091906103e79061109f565b905060008167ffffffffffffffff8111156104045761040461171e565b60405190808252806020026020018201604052801561042d578160200160208202803683370190505b50905060005b8281101561048c576001600160a01b038516600090815260036020526040902061045d90826110a9565b82828151811061046f5761046f611734565b60209081029190910101528061048481611760565b915050610433565b509392505050565b60006104a2828401846117f9565b8051909150156104b5576104b5816110b5565b505050565b600083116104ff5760405162461bcd60e51b81526020600482015260126024820152710616d6f756e742063616e6e6f7420626520360741b6044820152606401610364565b6001600160a01b0385166105555760405162461bcd60e51b815260206004820181905260248201527f73656c6c546f6b656e2063616e6e6f74206265207a65726f20616464726573736044820152606401610364565b6001600160a01b0384166105ab5760405162461bcd60e51b815260206004820152601f60248201527f627579546f6b656e2063616e6e6f74206265207a65726f2061646472657373006044820152606401610364565b600854821161061a5760405162461bcd60e51b815260206004820152603560248201527f696e74657276616c2068617320746f2062652067726561746572207468616e206044820152741b5a5b9a5b5d5b555c1ad9595c125b9d195c9d985b605a1b6064820152608401610364565b6040516bffffffffffffffffffffffff19606087811b8216602084015286901b16603482015260009060480160408051601f198184030181529181528151602092830120600081815260059093529120909150610678600683611084565b6106f85780546001600160a01b038089166001600160a01b0319928316178355600183018054918916919092161790556106b3600683611113565b50604080516001600160a01b03808a168252881660208201527fc10d5168cedd6092198b6feaf9c1340006c4737be1b2f7c665dbc3421b3e255f910160405180910390a15b3360009081526003602052604090206107119083611113565b506040516bffffffffffffffffffffffff193360601b16602082015260348101869052605481018590526074810184905260009060940160408051601f198184030181529181528151602092830120600081815260028601909352912090915061077e6003840183611084565b6107a15780546001600160a01b0319163317815561079f6003840183611113565b505b33600090815260046020908152604080832087845290915290206107c59083611113565b50600181018790556002810185905560038101869055604080516001600160a01b03808c1682528a16602082015290810188905260608101879052608081018690527f683bc1b553fb7523892e96a28c87320b19c75a0e8a7294919ae8fbce9ecea5249060a00160405180910390a1505050505050505050565b600060606008546009546108539190611944565b42101561085f57610aae565b600061086b600661109f565b905060008167ffffffffffffffff8111156108885761088861171e565b6040519080825280602002602001820160405280156108ce57816020015b6040805180820190915260008152606060208201528152602001906001900390816108a65790505b5090506000805b83811015610a875760006108ea6006836110a9565b6000818152600560205260408120919250906109089060030161109f565b90508015610a725760008167ffffffffffffffff81111561092b5761092b61171e565b604051908082528060200260200182016040528015610954578160200160208202803683370190505b5090506000805b83811015610a2e57600085815260056020526040812061097e90600301836110a9565b60008781526005602090815260408083208484526002908101835292819020815160808101835281546001600160a01b031681526001820154938101939093529283015490820181905260039092015460608201819052929350916109e291611944565b421115610a1957818585815181106109fc576109fc611734565b602090810291909101015283610a1181611760565b94505060019c505b50508080610a2690611760565b91505061095b565b50604051806040016040528085815260200183815250878781518110610a5657610a56611734565b60200260200101819052508580610a6c90611760565b96505050505b50508080610a7f90611760565b9150506108d5565b5081604051602001610a99919061195c565b60405160208183030381529060405293505050505b9250929050565b6001546001600160a01b03163314610b0f5760405162461bcd60e51b815260206004820181905260248201527f4f776e61626c653a2063616c6c6572206973206e6f7420746865206f776e65726044820152606401610364565b610b19600061111f565b565b6000828152600560205260409020610b366003820183611084565b610b825760405162461bcd60e51b815260206004820152601e60248201527f4f5244455220544f2044454c45544520444f4553204e4f5420455849535400006044820152606401610364565b60008281526002820160205260409020546001600160a01b03163314610bf85760405162461bcd60e51b815260206004820152602560248201527f43414e4e4f542044454c455445204f52444552204f4620444946464552454e54604482015264102aa9a2a960d91b6064820152608401610364565b610c056003820183611171565b50505050565b610c058484848460006104ba565b6000836001600160a01b0316856001600160a01b03161415610c905760405162461bcd60e51b815260206004820152602a60248201527f496e70757420616e64204f757470757420546f6b656e206861766520746f20626044820152691948191a5cdd1a5b98dd60b21b6064820152608401610364565b6040516323b872dd60e01b81526001600160a01b038381166004830152306024830152604482018590528616906323b872dd90606401602060405180830381600087803b158015610ce057600080fd5b505af1925050508015610d10575060408051601f3d908101601f19168201909252610d0d918101906119fc565b60015b610d1c57506000610ec8565b5060025460405163095ea7b360e01b81526001600160a01b039182166004820152602481018590529086169063095ea7b390604401602060405180830381600087803b158015610d6b57600080fd5b505af1158015610d7f573d6000803e3d6000fd5b505050506040513d601f19601f82011682018060405250810190610da391906119fc565b506040805160028082526060820183526000926020830190803683370190505090508581600081518110610dd957610dd9611734565b60200260200101906001600160a01b031690816001600160a01b0316815250508481600181518110610e0d57610e0d611734565b6001600160a01b0392831660209182029290920101526002546040516338ed173960e01b81529116906338ed173990610e53908790600090869089904290600401611a1e565b600060405180830381600087803b158015610e6d57600080fd5b505af1158015610e81573d6000803e3d6000fd5b505050506040513d6000823e601f3d908101601f19168201604052610ea99190810190611a8f565b600181518110610ebb57610ebb611734565b5060019250610ec8915050565b949350505050565b6001600160a01b0382166000908152600460209081526040808320848452909152812060609190610f009061109f565b905060008167ffffffffffffffff811115610f1d57610f1d61171e565b604051908082528060200260200182016040528015610f46578160200160208202803683370190505b50905060005b82811015610fb0576001600160a01b03861660009081526004602090815260408083208884529091529020610f8190826110a9565b828281518110610f9357610f93611734565b602090810291909101015280610fa881611760565b915050610f4c565b50949350505050565b6001546001600160a01b031633146110135760405162461bcd60e51b815260206004820181905260248201527f4f776e61626c653a2063616c6c6572206973206e6f7420746865206f776e65726044820152606401610364565b6001600160a01b0381166110785760405162461bcd60e51b815260206004820152602660248201527f4f776e61626c653a206e6577206f776e657220697320746865207a65726f206160448201526564647265737360d01b6064820152608401610364565b6110818161111f565b50565b600081815260018301602052604081205415155b9392505050565b60006103bc825490565b6000611098838361117d565b60005b815181101561110f5760008282815181106110d5576110d5611734565b602002602001015190506000801b816000015114156110f357505050565b6110fc816111a7565b508061110781611760565b9150506110b8565b5050565b60006110988383611344565b600180546001600160a01b038381166001600160a01b0319831681179093556040519116919082907f8be0079c531659141344cd1fd0a4f28419497f9722a3daafe3b4186f6b6457e090600090a35050565b60006110988383611393565b600082600001828154811061119457611194611734565b9060005260206000200154905092915050565b6020810151516111b45750565b80516111c290600690611084565b6111c95750565b805160009081526005602052604081208054600182015491926001600160a01b0391821692909116905b84602001515181101561133d5760008560200151828151811061121857611218611734565b602002602001015190506000801b811415611233575061133d565b6112406003860182611084565b61124a575061133d565b600081815260028087016020526040909120600381015491810154909161127091611944565b421161127d57505061133d565b600181015481546001600160a01b0316600061129b88888585610c19565b905080156112e957426002850155895160408051918252602082018790527f5db58c70037aa768b73c40c300afd09c428bc4bf9e881d02eb2a5f0e6fa295f9910160405180910390a1611325565b895160408051918252602082018790527f26916b3aee826c0f5bf6f8afa7138f7db313ada074b6be7ba10ac7b28ccf51c8910160405180910390a15b5050505050808061133590611760565b9150506111f3565b5050505050565b600081815260018301602052604081205461138b575081546001818101845560008481526020808220909301849055845484825282860190935260409020919091556103bc565b5060006103bc565b6000818152600183016020526040812054801561147c5760006113b7600183611b20565b85549091506000906113cb90600190611b20565b90508181146114305760008660000182815481106113eb576113eb611734565b906000526020600020015490508087600001848154811061140e5761140e611734565b6000918252602080832090910192909255918252600188019052604090208390555b855486908061144157611441611b37565b6001900381819060005260206000200160009055905585600101600086815260200190815260200160002060009055600193505050506103bc565b60009150506103bc565b6000806040838503121561149957600080fd5b50508035926020909101359150565b6001600160a01b038116811461108157600080fd5b6000602082840312156114cf57600080fd5b8135611098816114a8565b6020808252825182820181905260009190848201906040850190845b81811015611512578351835292840192918401916001016114f6565b50909695505050505050565b6000806020838503121561153157600080fd5b823567ffffffffffffffff8082111561154957600080fd5b818501915085601f83011261155d57600080fd5b81358181111561156c57600080fd5b86602082850101111561157e57600080fd5b60209290920196919550909350505050565b600080600080600060a086880312156115a857600080fd5b85356115b3816114a8565b945060208601356115c3816114a8565b94979496505050506040830135926060810135926080909101359150565b821515815260006020604081840152835180604085015260005b81811015611617578581018301518582016060015282016115fb565b81811115611629576000606083870101525b50601f01601f191692909201606001949350505050565b6000806000806080858703121561165657600080fd5b8435611661816114a8565b93506020850135611671816114a8565b93969395505050506040820135916060013590565b60006020828403121561169857600080fd5b5035919050565b600080600080608085870312156116b557600080fd5b84356116c0816114a8565b935060208501356116d0816114a8565b92506040850135915060608501356116e7816114a8565b939692955090935050565b6000806040838503121561170557600080fd5b8235611710816114a8565b946020939093013593505050565b634e487b7160e01b600052604160045260246000fd5b634e487b7160e01b600052603260045260246000fd5b634e487b7160e01b600052601160045260246000fd5b60006000198214156117745761177461174a565b5060010190565b6040805190810167ffffffffffffffff8111828210171561179e5761179e61171e565b60405290565b604051601f8201601f1916810167ffffffffffffffff811182821017156117cd576117cd61171e565b604052919050565b600067ffffffffffffffff8211156117ef576117ef61171e565b5060051b60200190565b6000602080838503121561180c57600080fd5b823567ffffffffffffffff8082111561182457600080fd5b818501915085601f83011261183857600080fd5b813561184b611846826117d5565b6117a4565b81815260059190911b8301840190848101908883111561186a57600080fd5b8585015b83811015611937578035858111156118865760008081fd5b86016040818c03601f190181131561189e5760008081fd5b6118a661177b565b89830135815281830135888111156118be5760008081fd5b8084019350508c603f8401126118d45760008081fd5b898301356118e4611846826117d5565b81815260059190911b84018301908b8101908f8311156119045760008081fd5b948401945b828610156119225785358252948c0194908c0190611909565b838d015250508552505091860191860161186e565b5098975050505050505050565b600082198211156119575761195761174a565b500190565b60006020808301818452808551808352604092508286019150828160051b8701018488016000805b848110156119ed57898403603f19018652825180518552880151888501889052805188860181905290890190839060608701905b808310156119d85783518252928b019260019290920191908b01906119b8565b50978a01979550505091870191600101611984565b50919998505050505050505050565b600060208284031215611a0e57600080fd5b8151801515811461109857600080fd5b600060a082018783526020878185015260a0604085015281875180845260c086019150828901935060005b81811015611a6e5784516001600160a01b031683529383019391830191600101611a49565b50506001600160a01b03969096166060850152505050608001529392505050565b60006020808385031215611aa257600080fd5b825167ffffffffffffffff811115611ab957600080fd5b8301601f81018513611aca57600080fd5b8051611ad8611846826117d5565b81815260059190911b82018301908381019087831115611af757600080fd5b928401925b82841015611b1557835182529284019290840190611afc565b979650505050505050565b600082821015611b3257611b3261174a565b500390565b634e487b7160e01b600052603160045260246000fdfea26469706673582212203b9dc30fbcedc8d44745e92075597932cdcde9976420b7b9b2d1bd9052e8df2d64736f6c63430008090033",
  "bytecodeSha1": "9f0d2aca4e5b15806b027871a244ff8e6f154a3e",
  "compiler": {
    "evm_version": "istanbul",
    "optimizer": {
      "enabled": true,
      "runs": 200
    },
    "version": "0.8.9+commit.e5eed63a"
  },
  "contractName": "Trickle",
  "language": "Solidity",
  "natspec": {
    "kind": "dev",
    "methods": {
      "checkUpkeep(bytes)": {
        "notice": "Check if Upkeep is needed and generate performData",
        "returns": {
          "performData": "     Serialized array of structs identifying orders to be executed in next upkeep",
          "upkeepNeeded": "    Boolean indicating wether upkeep needs to be performed"
        }
      },
      "constructor": {
        "notice": "Creates new instance of Trickle contract",
        "params": {
          "_exchangeRouter": "Address of Sushiswap / UniswapV2 router contract to execute trades against",
          "_minimumUpkeepInterval": "Minimum interval between upkeeps independent of users orders"
        }
      },
      "deleteRecurringOrder(bytes32,bytes32)": {
        "notice": "Delete a given recurring order",
        "params": {
          "_orderHash": "Hash of remaining order data (user address, amount, interval)",
          "_tokenPairHash": "Hash of sell and buyToken addresses identifying the tokenPair."
        }
      },
      "getOrderData(bytes32,bytes32)": {
        "notice": "Utility function for frontend to get data on a given order",
        "params": {
          "_orderHash": "Hash of remaining order data (user address, amount, interval)",
          "_tokenPairHash": "Hash of sell and buyToken addresses identifying the tokenPair."
        },
        "returns": {
          "_0": "Instance of RecurringOrder struct containing amount interval etc."
        }
      },
      "getOrders(address,bytes32)": {
        "notice": "List hashes of active orders for given tokenPair and user",
        "params": {
          "_tokenPairHash": "Hash of sell and buyToken addresses identifying the tokenPair.",
          "_user": "Address of the user for which to query active token pairs"
        },
        "returns": {
          "_0": "Array of order-hashes identifying the orders set for given user and token pair"
        }
      },
      "getTokenPairData(bytes32)": {
        "notice": "Utility function for frontend to get data on a given token pair",
        "params": {
          "_tokenPairHash": "Hash of sell and buyToken addresses identifying the tokenPair."
        },
        "returns": {
          "_0": "Address of token to be sold",
          "_1": "Address of token to be bought"
        }
      },
      "getTokenPairs(address)": {
        "notice": "Utility function for frontend to get all token pairs for which the given user has set orders",
        "params": {
          "_user": "Address of the user for which to query active token pairs"
        },
        "returns": {
          "_0": "Array of tokenPair-hashes identifying combinations of sell / buyToken for which the user has active orders"
        }
      },
      "owner()": {
        "details": "Returns the address of the current owner."
      },
      "performUpkeep(bytes)": {
        "notice": "Perform Upkeep executing all pending orders",
        "params": {
          "performData": "Serialized array of structs identifying orders to be executed as returned by checkUpkeep"
        }
      },
      "renounceOwnership()": {
        "details": "Leaves the contract without owner. It will not be possible to call `onlyOwner` functions anymore. Can only be called by the current owner. NOTE: Renouncing ownership will leave the contract without an owner, thereby removing any functionality that is only available to the owner."
      },
      "setRecurringOrder(address,address,uint256,uint256)": {
        "notice": "Creates a new recurring order for the given User starting immediately.",
        "params": {
          "_buyToken": "Address of token to buy",
          "_interval": "Interval of execution in ms",
          "_sellAmount": "Amount of sell token to sell in each trade",
          "_sellToken": "Address of token to sell"
        }
      },
      "setRecurringOrderWithStartTimestamp(address,address,uint256,uint256,uint256)": {
        "notice": "Creates a new recurring order for the given User starting from the given block timestamp.",
        "params": {
          "_buyToken": "Address of token to buy",
          "_interval": "Interval of execution in ms",
          "_sellAmount": "Amount of sell token to sell in each trade",
          "_sellToken": "Address of token to sell",
          "_startTimestamp": "Block timestamp from which to start the execution of this order"
        }
      },
      "swapExactTokensForTokens(address,address,uint256,address)": {
        "notice": "Swap exact amount of input token for variable amount of output token",
        "params": {
          "_amountIn": "Amount of input tokens to sell",
          "_tokenIn": "Address of input token to sell ",
          "_tokenOut": "Address of output token to buy",
          "_user": "Address of user on whose behalf to trade."
        },
        "returns": {
          "_0": "Boolean indicating whether trade has been executed sucessfully"
        }
      },
      "transferOwnership(address)": {
        "details": "Transfers ownership of the contract to a new account (`newOwner`). Can only be called by the current owner."
      }
    },
    "version": 1
  },
  "opcodes": "PUSH1 0x80 PUSH1 0x40 MSTORE CALLVALUE DUP1 ISZERO PUSH2 0x10 JUMPI PUSH1 0x0 DUP1 REVERT JUMPDEST POP PUSH1 0x4 CALLDATASIZE LT PUSH2 0xF5 JUMPI PUSH1 0x0 CALLDATALOAD PUSH1 0xE0 SHR DUP1 PUSH4 0x790FC5FB GT PUSH2 0x97 JUMPI DUP1 PUSH4 0x96F10B27 GT PUSH2 0x66 JUMPI DUP1 PUSH4 0x96F10B27 EQ PUSH2 0x238 JUMPI DUP1 PUSH4 0xAD4207C8 EQ PUSH2 0x28D JUMPI DUP1 PUSH4 0xC7C6AB04 EQ PUSH2 0x2B0 JUMPI DUP1 PUSH4 0xF2FDE38B EQ PUSH2 0x2C3 JUMPI PUSH1 0x0 DUP1 REVERT JUMPDEST DUP1 PUSH4 0x790FC5FB EQ PUSH2 0x1EA JUMPI DUP1 PUSH4 0x89C952A3 EQ PUSH2 0x201 JUMPI DUP1 PUSH4 0x8BD9DE58 EQ PUSH2 0x214 JUMPI DUP1 PUSH4 0x8DA5CB5B EQ PUSH2 0x227 JUMPI PUSH1 0x0 DUP1 REVERT JUMPDEST DUP1 PUSH4 0x4585E33B GT PUSH2 0xD3 JUMPI DUP1 PUSH4 0x4585E33B EQ PUSH2 0x199 JUMPI DUP1 PUSH4 0x57819593 EQ PUSH2 0x1AE JUMPI DUP1 PUSH4 0x6E04FF0D EQ PUSH2 0x1C1 JUMPI DUP1 PUSH4 0x715018A6 EQ PUSH2 0x1E2 JUMPI PUSH1 0x0 DUP1 REVERT JUMPDEST DUP1 PUSH4 0x1CB85818 EQ PUSH2 0xFA JUMPI DUP1 PUSH4 0x23D16E81 EQ PUSH2 0x12A JUMPI DUP1 PUSH4 0x2D57B185 EQ PUSH2 0x179 JUMPI JUMPDEST PUSH1 0x0 DUP1 REVERT JUMPDEST PUSH1 0x2 SLOAD PUSH2 0x10D SWAP1 PUSH1 0x1 PUSH1 0x1 PUSH1 0xA0 SHL SUB AND DUP2 JUMP JUMPDEST PUSH1 0x40 MLOAD PUSH1 0x1 PUSH1 0x1 PUSH1 0xA0 SHL SUB SWAP1 SWAP2 AND DUP2 MSTORE PUSH1 0x20 ADD JUMPDEST PUSH1 0x40 MLOAD DUP1 SWAP2 SUB SWAP1 RETURN JUMPDEST PUSH2 0x13D PUSH2 0x138 CALLDATASIZE PUSH1 0x4 PUSH2 0x1486 JUMP JUMPDEST PUSH2 0x2D6 JUMP JUMPDEST PUSH1 0x40 MLOAD PUSH2 0x121 SWAP2 SWAP1 DUP2 MLOAD PUSH1 0x1 PUSH1 0x1 PUSH1 0xA0 SHL SUB AND DUP2 MSTORE PUSH1 0x20 DUP1 DUP4 ADD MLOAD SWAP1 DUP3 ADD MSTORE PUSH1 0x40 DUP1 DUP4 ADD MLOAD SWAP1 DUP3 ADD MSTORE PUSH1 0x60 SWAP2 DUP3 ADD MLOAD SWAP2 DUP2 ADD SWAP2 SWAP1 SWAP2 MSTORE PUSH1 0x80 ADD SWAP1 JUMP JUMPDEST PUSH2 0x18C PUSH2 0x187 CALLDATASIZE PUSH1 0x4 PUSH2 0x14BD JUMP JUMPDEST PUSH2 0x3C2 JUMP JUMPDEST PUSH1 0x40 MLOAD PUSH2 0x121 SWAP2 SWAP1 PUSH2 0x14DA JUMP JUMPDEST PUSH2 0x1AC PUSH2 0x1A7 CALLDATASIZE PUSH1 0x4 PUSH2 0x151E JUMP JUMPDEST PUSH2 0x494 JUMP JUMPDEST STOP JUMPDEST PUSH2 0x1AC PUSH2 0x1BC CALLDATASIZE PUSH1 0x4 PUSH2 0x1590 JUMP JUMPDEST PUSH2 0x4BA JUMP JUMPDEST PUSH2 0x1D4 PUSH2 0x1CF CALLDATASIZE PUSH1 0x4 PUSH2 0x151E JUMP JUMPDEST PUSH2 0x83F JUMP JUMPDEST PUSH1 0x40 MLOAD PUSH2 0x121 SWAP3 SWAP2 SWAP1 PUSH2 0x15E1 JUMP JUMPDEST PUSH2 0x1AC PUSH2 0xAB5 JUMP JUMPDEST PUSH2 0x1F3 PUSH1 0x8 SLOAD DUP2 JUMP JUMPDEST PUSH1 0x40 MLOAD SWAP1 DUP2 MSTORE PUSH1 0x20 ADD PUSH2 0x121 JUMP JUMPDEST PUSH2 0x1AC PUSH2 0x20F CALLDATASIZE PUSH1 0x4 PUSH2 0x1486 JUMP JUMPDEST PUSH2 0xB1B JUMP JUMPDEST PUSH2 0x1AC PUSH2 0x222 CALLDATASIZE PUSH1 0x4 PUSH2 0x1640 JUMP JUMPDEST PUSH2 0xC0B JUMP JUMPDEST PUSH1 0x1 SLOAD PUSH1 0x1 PUSH1 0x1 PUSH1 0xA0 SHL SUB AND PUSH2 0x10D JUMP JUMPDEST PUSH2 0x26D PUSH2 0x246 CALLDATASIZE PUSH1 0x4 PUSH2 0x1686 JUMP JUMPDEST PUSH1 0x0 SWAP1 DUP2 MSTORE PUSH1 0x5 PUSH1 0x20 MSTORE PUSH1 0x40 SWAP1 KECCAK256 DUP1 SLOAD PUSH1 0x1 SWAP1 SWAP2 ADD SLOAD PUSH1 0x1 PUSH1 0x1 PUSH1 0xA0 SHL SUB SWAP2 DUP3 AND SWAP3 SWAP2 AND SWAP1 JUMP JUMPDEST PUSH1 0x40 DUP1 MLOAD PUSH1 0x1 PUSH1 0x1 PUSH1 0xA0 SHL SUB SWAP4 DUP5 AND DUP2 MSTORE SWAP3 SWAP1 SWAP2 AND PUSH1 0x20 DUP4 ADD MSTORE ADD PUSH2 0x121 JUMP JUMPDEST PUSH2 0x2A0 PUSH2 0x29B CALLDATASIZE PUSH1 0x4 PUSH2 0x169F JUMP JUMPDEST PUSH2 0xC19 JUMP JUMPDEST PUSH1 0x40 MLOAD SWAP1 ISZERO ISZERO DUP2 MSTORE PUSH1 0x20 ADD PUSH2 0x121 JUMP JUMPDEST PUSH2 0x18C PUSH2 0x2BE CALLDATASIZE PUSH1 0x4 PUSH2 0x16F2 JUMP JUMPDEST PUSH2 0xED0 JUMP JUMPDEST PUSH2 0x1AC PUSH2 0x2D1 CALLDATASIZE PUSH1 0x4 PUSH2 0x14BD JUMP JUMPDEST PUSH2 0xFB9 JUMP JUMPDEST PUSH2 0x30A PUSH1 0x40 MLOAD DUP1 PUSH1 0x80 ADD PUSH1 0x40 MSTORE DUP1 PUSH1 0x0 PUSH1 0x1 PUSH1 0x1 PUSH1 0xA0 SHL SUB AND DUP2 MSTORE PUSH1 0x20 ADD PUSH1 0x0 DUP2 MSTORE PUSH1 0x20 ADD PUSH1 0x0 DUP2 MSTORE PUSH1 0x20 ADD PUSH1 0x0 DUP2 MSTORE POP SWAP1 JUMP JUMPDEST PUSH1 0x0 DUP4 DUP2 MSTORE PUSH1 0x5 PUSH1 0x20 MSTORE PUSH1 0x40 SWAP1 KECCAK256 PUSH2 0x325 PUSH1 0x3 DUP3 ADD DUP5 PUSH2 0x1084 JUMP JUMPDEST PUSH2 0x36D JUMPI PUSH1 0x40 MLOAD PUSH3 0x461BCD PUSH1 0xE5 SHL DUP2 MSTORE PUSH1 0x20 PUSH1 0x4 DUP3 ADD MSTORE PUSH1 0x14 PUSH1 0x24 DUP3 ADD MSTORE PUSH20 0x13D4911154881113D154C81393D50811561254D5 PUSH1 0x62 SHL PUSH1 0x44 DUP3 ADD MSTORE PUSH1 0x64 ADD JUMPDEST PUSH1 0x40 MLOAD DUP1 SWAP2 SUB SWAP1 REVERT JUMPDEST PUSH1 0x0 DUP4 DUP2 MSTORE PUSH1 0x2 SWAP2 DUP3 ADD PUSH1 0x20 SWAP1 DUP2 MSTORE PUSH1 0x40 SWAP2 DUP3 SWAP1 KECCAK256 DUP3 MLOAD PUSH1 0x80 DUP2 ADD DUP5 MSTORE DUP2 SLOAD PUSH1 0x1 PUSH1 0x1 PUSH1 0xA0 SHL SUB AND DUP2 MSTORE PUSH1 0x1 DUP3 ADD SLOAD SWAP3 DUP2 ADD SWAP3 SWAP1 SWAP3 MSTORE SWAP3 DUP4 ADD SLOAD SWAP2 DUP2 ADD SWAP2 SWAP1 SWAP2 MSTORE PUSH1 0x3 SWAP1 SWAP2 ADD SLOAD PUSH1 0x60 DUP3 ADD MSTORE SWAP1 POP JUMPDEST SWAP3 SWAP2 POP POP JUMP JUMPDEST PUSH1 0x1 PUSH1 0x1 PUSH1 0xA0 SHL SUB DUP2 AND PUSH1 0x0 SWAP1 DUP2 MSTORE PUSH1 0x3 PUSH1 0x20 MSTORE PUSH1 0x40 DUP2 KECCAK256 PUSH1 0x60 SWAP2 SWAP1 PUSH2 0x3E7 SWAP1 PUSH2 0x109F JUMP JUMPDEST SWAP1 POP PUSH1 0x0 DUP2 PUSH8 0xFFFFFFFFFFFFFFFF DUP2 GT ISZERO PUSH2 0x404 JUMPI PUSH2 0x404 PUSH2 0x171E JUMP JUMPDEST PUSH1 0x40 MLOAD SWAP1 DUP1 DUP3 MSTORE DUP1 PUSH1 0x20 MUL PUSH1 0x20 ADD DUP3 ADD PUSH1 0x40 MSTORE DUP1 ISZERO PUSH2 0x42D JUMPI DUP2 PUSH1 0x20 ADD PUSH1 0x20 DUP3 MUL DUP1 CALLDATASIZE DUP4 CALLDATACOPY ADD SWAP1 POP JUMPDEST POP SWAP1 POP PUSH1 0x0 JUMPDEST DUP3 DUP2 LT ISZERO PUSH2 0x48C JUMPI PUSH1 0x1 PUSH1 0x1 PUSH1 0xA0 SHL SUB DUP6 AND PUSH1 0x0 SWAP1 DUP2 MSTORE PUSH1 0x3 PUSH1 0x20 MSTORE PUSH1 0x40 SWAP1 KECCAK256 PUSH2 0x45D SWAP1 DUP3 PUSH2 0x10A9 JUMP JUMPDEST DUP3 DUP3 DUP2 MLOAD DUP2 LT PUSH2 0x46F JUMPI PUSH2 0x46F PUSH2 0x1734 JUMP JUMPDEST PUSH1 0x20 SWAP1 DUP2 MUL SWAP2 SWAP1 SWAP2 ADD ADD MSTORE DUP1 PUSH2 0x484 DUP2 PUSH2 0x1760 JUMP JUMPDEST SWAP2 POP POP PUSH2 0x433 JUMP JUMPDEST POP SWAP4 SWAP3 POP POP POP JUMP JUMPDEST PUSH1 0x0 PUSH2 0x4A2 DUP3 DUP5 ADD DUP5 PUSH2 0x17F9 JUMP JUMPDEST DUP1 MLOAD SWAP1 SWAP2 POP ISZERO PUSH2 0x4B5 JUMPI PUSH2 0x4B5 DUP2 PUSH2 0x10B5 JUMP JUMPDEST POP POP POP JUMP JUMPDEST PUSH1 0x0 DUP4 GT PUSH2 0x4FF JUMPI PUSH1 0x40 MLOAD PUSH3 0x461BCD PUSH1 0xE5 SHL DUP2 MSTORE PUSH1 0x20 PUSH1 0x4 DUP3 ADD MSTORE PUSH1 0x12 PUSH1 0x24 DUP3 ADD MSTORE PUSH18 0x616D6F756E742063616E6E6F74206265203 PUSH1 0x74 SHL PUSH1 0x44 DUP3 ADD MSTORE PUSH1 0x64 ADD PUSH2 0x364 JUMP JUMPDEST PUSH1 0x1 PUSH1 0x1 PUSH1 0xA0 SHL SUB DUP6 AND PUSH2 0x555 JUMPI PUSH1 0x40 MLOAD PUSH3 0x461BCD PUSH1 0xE5 SHL DUP2 MSTORE PUSH1 0x20 PUSH1 0x4 DUP3 ADD DUP2 SWAP1 MSTORE PUSH1 0x24 DUP3 ADD MSTORE PUSH32 0x73656C6C546F6B656E2063616E6E6F74206265207A65726F2061646472657373 PUSH1 0x44 DUP3 ADD MSTORE PUSH1 0x64 ADD PUSH2 0x364 JUMP JUMPDEST PUSH1 0x1 PUSH1 0x1 PUSH1 0xA0 SHL SUB DUP5 AND PUSH2 0x5AB JUMPI PUSH1 0x40 MLOAD PUSH3 0x461BCD PUSH1 0xE5 SHL DUP2 MSTORE PUSH1 0x20 PUSH1 0x4 DUP3 ADD MSTORE PUSH1 0x1F PUSH1 0x24 DUP3 ADD MSTORE PUSH32 0x627579546F6B656E2063616E6E6F74206265207A65726F206164647265737300 PUSH1 0x44 DUP3 ADD MSTORE PUSH1 0x64 ADD PUSH2 0x364 JUMP JUMPDEST PUSH1 0x8 SLOAD DUP3 GT PUSH2 0x61A JUMPI PUSH1 0x40 MLOAD PUSH3 0x461BCD PUSH1 0xE5 SHL DUP2 MSTORE PUSH1 0x20 PUSH1 0x4 DUP3 ADD MSTORE PUSH1 0x35 PUSH1 0x24 DUP3 ADD MSTORE PUSH32 0x696E74657276616C2068617320746F2062652067726561746572207468616E20 PUSH1 0x44 DUP3 ADD MSTORE PUSH21 0x1B5A5B9A5B5D5B555C1AD9595C125B9D195C9D985B PUSH1 0x5A SHL PUSH1 0x64 DUP3 ADD MSTORE PUSH1 0x84 ADD PUSH2 0x364 JUMP JUMPDEST PUSH1 0x40 MLOAD PUSH12 0xFFFFFFFFFFFFFFFFFFFFFFFF NOT PUSH1 0x60 DUP8 DUP2 SHL DUP3 AND PUSH1 0x20 DUP5 ADD MSTORE DUP7 SWAP1 SHL AND PUSH1 0x34 DUP3 ADD MSTORE PUSH1 0x0 SWAP1 PUSH1 0x48 ADD PUSH1 0x40 DUP1 MLOAD PUSH1 0x1F NOT DUP2 DUP5 SUB ADD DUP2 MSTORE SWAP2 DUP2 MSTORE DUP2 MLOAD PUSH1 0x20 SWAP3 DUP4 ADD KECCAK256 PUSH1 0x0 DUP2 DUP2 MSTORE PUSH1 0x5 SWAP1 SWAP4 MSTORE SWAP2 KECCAK256 SWAP1 SWAP2 POP PUSH2 0x678 PUSH1 0x6 DUP4 PUSH2 0x1084 JUMP JUMPDEST PUSH2 0x6F8 JUMPI DUP1 SLOAD PUSH1 0x1 PUSH1 0x1 PUSH1 0xA0 SHL SUB DUP1 DUP10 AND PUSH1 0x1 PUSH1 0x1 PUSH1 0xA0 SHL SUB NOT SWAP3 DUP4 AND OR DUP4 SSTORE PUSH1 0x1 DUP4 ADD DUP1 SLOAD SWAP2 DUP10 AND SWAP2 SWAP1 SWAP3 AND OR SWAP1 SSTORE PUSH2 0x6B3 PUSH1 0x6 DUP4 PUSH2 0x1113 JUMP JUMPDEST POP PUSH1 0x40 DUP1 MLOAD PUSH1 0x1 PUSH1 0x1 PUSH1 0xA0 SHL SUB DUP1 DUP11 AND DUP3 MSTORE DUP9 AND PUSH1 0x20 DUP3 ADD MSTORE PUSH32 0xC10D5168CEDD6092198B6FEAF9C1340006C4737BE1B2F7C665DBC3421B3E255F SWAP2 ADD PUSH1 0x40 MLOAD DUP1 SWAP2 SUB SWAP1 LOG1 JUMPDEST CALLER PUSH1 0x0 SWAP1 DUP2 MSTORE PUSH1 0x3 PUSH1 0x20 MSTORE PUSH1 0x40 SWAP1 KECCAK256 PUSH2 0x711 SWAP1 DUP4 PUSH2 0x1113 JUMP JUMPDEST POP PUSH1 0x40 MLOAD PUSH12 0xFFFFFFFFFFFFFFFFFFFFFFFF NOT CALLER PUSH1 0x60 SHL AND PUSH1 0x20 DUP3 ADD MSTORE PUSH1 0x34 DUP2 ADD DUP7 SWAP1 MSTORE PUSH1 0x54 DUP2 ADD DUP6 SWAP1 MSTORE PUSH1 0x74 DUP2 ADD DUP5 SWAP1 MSTORE PUSH1 0x0 SWAP1 PUSH1 0x94 ADD PUSH1 0x40 DUP1 MLOAD PUSH1 0x1F NOT DUP2 DUP5 SUB ADD DUP2 MSTORE SWAP2 DUP2 MSTORE DUP2 MLOAD PUSH1 0x20 SWAP3 DUP4 ADD KECCAK256 PUSH1 0x0 DUP2 DUP2 MSTORE PUSH1 0x2 DUP7 ADD SWAP1 SWAP4 MSTORE SWAP2 KECCAK256 SWAP1 SWAP2 POP PUSH2 0x77E PUSH1 0x3 DUP5 ADD DUP4 PUSH2 0x1084 JUMP JUMPDEST PUSH2 0x7A1 JUMPI DUP1 SLOAD PUSH1 0x1 PUSH1 0x1 PUSH1 0xA0 SHL SUB NOT AND CALLER OR DUP2 SSTORE PUSH2 0x79F PUSH1 0x3 DUP5 ADD DUP4 PUSH2 0x1113 JUMP JUMPDEST POP JUMPDEST CALLER PUSH1 0x0 SWAP1 DUP2 MSTORE PUSH1 0x4 PUSH1 0x20 SWAP1 DUP2 MSTORE PUSH1 0x40 DUP1 DUP4 KECCAK256 DUP8 DUP5 MSTORE SWAP1 SWAP2 MSTORE SWAP1 KECCAK256 PUSH2 0x7C5 SWAP1 DUP4 PUSH2 0x1113 JUMP JUMPDEST POP PUSH1 0x1 DUP2 ADD DUP8 SWAP1 SSTORE PUSH1 0x2 DUP2 ADD DUP6 SWAP1 SSTORE PUSH1 0x3 DUP2 ADD DUP7 SWAP1 SSTORE PUSH1 0x40 DUP1 MLOAD PUSH1 0x1 PUSH1 0x1 PUSH1 0xA0 SHL SUB DUP1 DUP13 AND DUP3 MSTORE DUP11 AND PUSH1 0x20 DUP3 ADD MSTORE SWAP1 DUP2 ADD DUP9 SWAP1 MSTORE PUSH1 0x60 DUP2 ADD DUP8 SWAP1 MSTORE PUSH1 0x80 DUP2 ADD DUP7 SWAP1 MSTORE PUSH32 0x683BC1B553FB7523892E96A28C87320B19C75A0E8A7294919AE8FBCE9ECEA524 SWAP1 PUSH1 0xA0 ADD PUSH1 0x40 MLOAD DUP1 SWAP2 SUB SWAP1 LOG1 POP POP POP POP POP POP POP POP POP JUMP JUMPDEST PUSH1 0x0 PUSH1 0x60 PUSH1 0x8 SLOAD PUSH1 0x9 SLOAD PUSH2 0x853 SWAP2 SWAP1 PUSH2 0x1944 JUMP JUMPDEST TIMESTAMP LT ISZERO PUSH2 0x85F JUMPI PUSH2 0xAAE JUMP JUMPDEST PUSH1 0x0 PUSH2 0x86B PUSH1 0x6 PUSH2 0x109F JUMP JUMPDEST SWAP1 POP PUSH1 0x0 DUP2 PUSH8 0xFFFFFFFFFFFFFFFF DUP2 GT ISZERO PUSH2 0x888 JUMPI PUSH2 0x888 PUSH2 0x171E JUMP JUMPDEST PUSH1 0x40 MLOAD SWAP1 DUP1 DUP3 MSTORE DUP1 PUSH1 0x20 MUL PUSH1 0x20 ADD DUP3 ADD PUSH1 0x40 MSTORE DUP1 ISZERO PUSH2 0x8CE JUMPI DUP2 PUSH1 0x20 ADD JUMPDEST PUSH1 0x40 DUP1 MLOAD DUP1 DUP3 ADD SWAP1 SWAP2 MSTORE PUSH1 0x0 DUP2 MSTORE PUSH1 0x60 PUSH1 0x20 DUP3 ADD MSTORE DUP2 MSTORE PUSH1 0x20 ADD SWAP1 PUSH1 0x1 SWAP1 SUB SWAP1 DUP2 PUSH2 0x8A6 JUMPI SWAP1 POP JUMPDEST POP SWAP1 POP PUSH1 0x0 DUP1 JUMPDEST DUP4 DUP2 LT ISZERO PUSH2 0xA87 JUMPI PUSH1 0x0 PUSH2 0x8EA PUSH1 0x6 DUP4 PUSH2 0x10A9 JUMP JUMPDEST PUSH1 0x0 DUP2 DUP2 MSTORE PUSH1 0x5 PUSH1 0x20 MSTORE PUSH1 0x40 DUP2 KECCAK256 SWAP2 SWAP3 POP SWAP1 PUSH2 0x908 SWAP1 PUSH1 0x3 ADD PUSH2 0x109F JUMP JUMPDEST SWAP1 POP DUP1 ISZERO PUSH2 0xA72 JUMPI PUSH1 0x0 DUP2 PUSH8 0xFFFFFFFFFFFFFFFF DUP2 GT ISZERO PUSH2 0x92B JUMPI PUSH2 0x92B PUSH2 0x171E JUMP JUMPDEST PUSH1 0x40 MLOAD SWAP1 DUP1 DUP3 MSTORE DUP1 PUSH1 0x20 MUL PUSH1 0x20 ADD DUP3 ADD PUSH1 0x40 MSTORE DUP1 ISZERO PUSH2 0x954 JUMPI DUP2 PUSH1 0x20 ADD PUSH1 0x20 DUP3 MUL DUP1 CALLDATASIZE DUP4 CALLDATACOPY ADD SWAP1 POP JUMPDEST POP SWAP1 POP PUSH1 0x0 DUP1 JUMPDEST DUP4 DUP2 LT ISZERO PUSH2 0xA2E JUMPI PUSH1 0x0 DUP6 DUP2 MSTORE PUSH1 0x5 PUSH1 0x20 MSTORE PUSH1 0x40 DUP2 KECCAK256 PUSH2 0x97E SWAP1 PUSH1 0x3 ADD DUP4 PUSH2 0x10A9 JUMP JUMPDEST PUSH1 0x0 DUP8 DUP2 MSTORE PUSH1 0x5 PUSH1 0x20 SWAP1 DUP2 MSTORE PUSH1 0x40 DUP1 DUP4 KECCAK256 DUP5 DUP5 MSTORE PUSH1 0x2 SWAP1 DUP2 ADD DUP4 MSTORE SWAP3 DUP2 SWAP1 KECCAK256 DUP2 MLOAD PUSH1 0x80 DUP2 ADD DUP4 MSTORE DUP2 SLOAD PUSH1 0x1 PUSH1 0x1 PUSH1 0xA0 SHL SUB AND DUP2 MSTORE PUSH1 0x1 DUP3 ADD SLOAD SWAP4 DUP2 ADD SWAP4 SWAP1 SWAP4 MSTORE SWAP3 DUP4 ADD SLOAD SWAP1 DUP3 ADD DUP2 SWAP1 MSTORE PUSH1 0x3 SWAP1 SWAP3 ADD SLOAD PUSH1 0x60 DUP3 ADD DUP2 SWAP1 MSTORE SWAP3 SWAP4 POP SWAP2 PUSH2 0x9E2 SWAP2 PUSH2 0x1944 JUMP JUMPDEST TIMESTAMP GT ISZERO PUSH2 0xA19 JUMPI DUP2 DUP6 DUP6 DUP2 MLOAD DUP2 LT PUSH2 0x9FC JUMPI PUSH2 0x9FC PUSH2 0x1734 JUMP JUMPDEST PUSH1 0x20 SWAP1 DUP2 MUL SWAP2 SWAP1 SWAP2 ADD ADD MSTORE DUP4 PUSH2 0xA11 DUP2 PUSH2 0x1760 JUMP JUMPDEST SWAP5 POP POP PUSH1 0x1 SWAP13 POP JUMPDEST POP POP DUP1 DUP1 PUSH2 0xA26 SWAP1 PUSH2 0x1760 JUMP JUMPDEST SWAP2 POP POP PUSH2 0x95B JUMP JUMPDEST POP PUSH1 0x40 MLOAD DUP1 PUSH1 0x40 ADD PUSH1 0x40 MSTORE DUP1 DUP6 DUP2 MSTORE PUSH1 0x20 ADD DUP4 DUP2 MSTORE POP DUP8 DUP8 DUP2 MLOAD DUP2 LT PUSH2 0xA56 JUMPI PUSH2 0xA56 PUSH2 0x1734 JUMP JUMPDEST PUSH1 0x20 MUL PUSH1 0x20 ADD ADD DUP2 SWAP1 MSTORE POP DUP6 DUP1 PUSH2 0xA6C SWAP1 PUSH2 0x1760 JUMP JUMPDEST SWAP7 POP POP POP POP JUMPDEST POP POP DUP1 DUP1 PUSH2 0xA7F SWAP1 PUSH2 0x1760 JUMP JUMPDEST SWAP2 POP POP PUSH2 0x8D5 JUMP JUMPDEST POP DUP2 PUSH1 0x40 MLOAD PUSH1 0x20 ADD PUSH2 0xA99 SWAP2 SWAP1 PUSH2 0x195C JUMP JUMPDEST PUSH1 0x40 MLOAD PUSH1 0x20 DUP2 DUP4 SUB SUB DUP2 MSTORE SWAP1 PUSH1 0x40 MSTORE SWAP4 POP POP POP POP JUMPDEST SWAP3 POP SWAP3 SWAP1 POP JUMP JUMPDEST PUSH1 0x1 SLOAD PUSH1 0x1 PUSH1 0x1 PUSH1 0xA0 SHL SUB AND CALLER EQ PUSH2 0xB0F JUMPI PUSH1 0x40 MLOAD PUSH3 0x461BCD PUSH1 0xE5 SHL DUP2 MSTORE PUSH1 0x20 PUSH1 0x4 DUP3 ADD DUP2 SWAP1 MSTORE PUSH1 0x24 DUP3 ADD MSTORE PUSH32 0x4F776E61626C653A2063616C6C6572206973206E6F7420746865206F776E6572 PUSH1 0x44 DUP3 ADD MSTORE PUSH1 0x64 ADD PUSH2 0x364 JUMP JUMPDEST PUSH2 0xB19 PUSH1 0x0 PUSH2 0x111F JUMP JUMPDEST JUMP JUMPDEST PUSH1 0x0 DUP3 DUP2 MSTORE PUSH1 0x5 PUSH1 0x20 MSTORE PUSH1 0x40 SWAP1 KECCAK256 PUSH2 0xB36 PUSH1 0x3 DUP3 ADD DUP4 PUSH2 0x1084 JUMP JUMPDEST PUSH2 0xB82 JUMPI PUSH1 0x40 MLOAD PUSH3 0x461BCD PUSH1 0xE5 SHL DUP2 MSTORE PUSH1 0x20 PUSH1 0x4 DUP3 ADD MSTORE PUSH1 0x1E PUSH1 0x24 DUP3 ADD MSTORE PUSH32 0x4F5244455220544F2044454C45544520444F4553204E4F542045584953540000 PUSH1 0x44 DUP3 ADD MSTORE PUSH1 0x64 ADD PUSH2 0x364 JUMP JUMPDEST PUSH1 0x0 DUP3 DUP2 MSTORE PUSH1 0x2 DUP3 ADD PUSH1 0x20 MSTORE PUSH1 0x40 SWAP1 KECCAK256 SLOAD PUSH1 0x1 PUSH1 0x1 PUSH1 0xA0 SHL SUB AND CALLER EQ PUSH2 0xBF8 JUMPI PUSH1 0x40 MLOAD PUSH3 0x461BCD PUSH1 0xE5 SHL DUP2 MSTORE PUSH1 0x20 PUSH1 0x4 DUP3 ADD MSTORE PUSH1 0x25 PUSH1 0x24 DUP3 ADD MSTORE PUSH32 0x43414E4E4F542044454C455445204F52444552204F4620444946464552454E54 PUSH1 0x44 DUP3 ADD MSTORE PUSH5 0x102AA9A2A9 PUSH1 0xD9 SHL PUSH1 0x64 DUP3 ADD MSTORE PUSH1 0x84 ADD PUSH2 0x364 JUMP JUMPDEST PUSH2 0xC05 PUSH1 0x3 DUP3 ADD DUP4 PUSH2 0x1171 JUMP JUMPDEST POP POP POP POP JUMP JUMPDEST PUSH2 0xC05 DUP5 DUP5 DUP5 DUP5 PUSH1 0x0 PUSH2 0x4BA JUMP JUMPDEST PUSH1 0x0 DUP4 PUSH1 0x1 PUSH1 0x1 PUSH1 0xA0 SHL SUB AND DUP6 PUSH1 0x1 PUSH1 0x1 PUSH1 0xA0 SHL SUB AND EQ ISZERO PUSH2 0xC90 JUMPI PUSH1 0x40 MLOAD PUSH3 0x461BCD PUSH1 0xE5 SHL DUP2 MSTORE PUSH1 0x20 PUSH1 0x4 DUP3 ADD MSTORE PUSH1 0x2A PUSH1 0x24 DUP3 ADD MSTORE PUSH32 0x496E70757420616E64204F757470757420546F6B656E206861766520746F2062 PUSH1 0x44 DUP3 ADD MSTORE PUSH10 0x1948191A5CDD1A5B98DD PUSH1 0xB2 SHL PUSH1 0x64 DUP3 ADD MSTORE PUSH1 0x84 ADD PUSH2 0x364 JUMP JUMPDEST PUSH1 0x40 MLOAD PUSH4 0x23B872DD PUSH1 0xE0 SHL DUP2 MSTORE PUSH1 0x1 PUSH1 0x1 PUSH1 0xA0 SHL SUB DUP4 DUP2 AND PUSH1 0x4 DUP4 ADD MSTORE ADDRESS PUSH1 0x24 DUP4 ADD MSTORE PUSH1 0x44 DUP3 ADD DUP6 SWAP1 MSTORE DUP7 AND SWAP1 PUSH4 0x23B872DD SWAP1 PUSH1 0x64 ADD PUSH1 0x20 PUSH1 0x40 MLOAD DUP1 DUP4 SUB DUP2 PUSH1 0x0 DUP8 DUP1 EXTCODESIZE ISZERO DUP1 ISZERO PUSH2 0xCE0 JUMPI PUSH1 0x0 DUP1 REVERT JUMPDEST POP GAS CALL SWAP3 POP POP POP DUP1 ISZERO PUSH2 0xD10 JUMPI POP PUSH1 0x40 DUP1 MLOAD PUSH1 0x1F RETURNDATASIZE SWAP1 DUP2 ADD PUSH1 0x1F NOT AND DUP3 ADD SWAP1 SWAP3 MSTORE PUSH2 0xD0D SWAP2 DUP2 ADD SWAP1 PUSH2 0x19FC JUMP JUMPDEST PUSH1 0x1 JUMPDEST PUSH2 0xD1C JUMPI POP PUSH1 0x0 PUSH2 0xEC8 JUMP JUMPDEST POP PUSH1 0x2 SLOAD PUSH1 0x40 MLOAD PUSH4 0x95EA7B3 PUSH1 0xE0 SHL DUP2 MSTORE PUSH1 0x1 PUSH1 0x1 PUSH1 0xA0 SHL SUB SWAP2 DUP3 AND PUSH1 0x4 DUP3 ADD MSTORE PUSH1 0x24 DUP2 ADD DUP6 SWAP1 MSTORE SWAP1 DUP7 AND SWAP1 PUSH4 0x95EA7B3 SWAP1 PUSH1 0x44 ADD PUSH1 0x20 PUSH1 0x40 MLOAD DUP1 DUP4 SUB DUP2 PUSH1 0x0 DUP8 DUP1 EXTCODESIZE ISZERO DUP1 ISZERO PUSH2 0xD6B JUMPI PUSH1 0x0 DUP1 REVERT JUMPDEST POP GAS CALL ISZERO DUP1 ISZERO PUSH2 0xD7F JUMPI RETURNDATASIZE PUSH1 0x0 DUP1 RETURNDATACOPY RETURNDATASIZE PUSH1 0x0 REVERT JUMPDEST POP POP POP POP PUSH1 0x40 MLOAD RETURNDATASIZE PUSH1 0x1F NOT PUSH1 0x1F DUP3 ADD AND DUP3 ADD DUP1 PUSH1 0x40 MSTORE POP DUP2 ADD SWAP1 PUSH2 0xDA3 SWAP2 SWAP1 PUSH2 0x19FC JUMP JUMPDEST POP PUSH1 0x40 DUP1 MLOAD PUSH1 0x2 DUP1 DUP3 MSTORE PUSH1 0x60 DUP3 ADD DUP4 MSTORE PUSH1 0x0 SWAP3 PUSH1 0x20 DUP4 ADD SWAP1 DUP1 CALLDATASIZE DUP4 CALLDATACOPY ADD SWAP1 POP POP SWAP1 POP DUP6 DUP2 PUSH1 0x0 DUP2 MLOAD DUP2 LT PUSH2 0xDD9 JUMPI PUSH2 0xDD9 PUSH2 0x1734 JUMP JUMPDEST PUSH1 0x20 MUL PUSH1 0x20 ADD ADD SWAP1 PUSH1 0x1 PUSH1 0x1 PUSH1 0xA0 SHL SUB AND SWAP1 DUP2 PUSH1 0x1 PUSH1 0x1 PUSH1 0xA0 SHL SUB AND DUP2 MSTORE POP POP DUP5 DUP2 PUSH1 0x1 DUP2 MLOAD DUP2 LT PUSH2 0xE0D JUMPI PUSH2 0xE0D PUSH2 0x1734 JUMP JUMPDEST PUSH1 0x1 PUSH1 0x1 PUSH1 0xA0 SHL SUB SWAP3 DUP4 AND PUSH1 0x20 SWAP2 DUP3 MUL SWAP3 SWAP1 SWAP3 ADD ADD MSTORE PUSH1 0x2 SLOAD PUSH1 0x40 MLOAD PUSH4 0x38ED1739 PUSH1 0xE0 SHL DUP2 MSTORE SWAP2 AND SWAP1 PUSH4 0x38ED1739 SWAP1 PUSH2 0xE53 SWAP1 DUP8 SWAP1 PUSH1 0x0 SWAP1 DUP7 SWAP1 DUP10 SWAP1 TIMESTAMP SWAP1 PUSH1 0x4 ADD PUSH2 0x1A1E JUMP JUMPDEST PUSH1 0x0 PUSH1 0x40 MLOAD DUP1 DUP4 SUB DUP2 PUSH1 0x0 DUP8 DUP1 EXTCODESIZE ISZERO DUP1 ISZERO PUSH2 0xE6D JUMPI PUSH1 0x0 DUP1 REVERT JUMPDEST POP GAS CALL ISZERO DUP1 ISZERO PUSH2 0xE81 JUMPI RETURNDATASIZE PUSH1 0x0 DUP1 RETURNDATACOPY RETURNDATASIZE PUSH1 0x0 REVERT JUMPDEST POP POP POP POP PUSH1 0x40 MLOAD RETURNDATASIZE PUSH1 0x0 DUP3 RETURNDATACOPY PUSH1 0x1F RETURNDATASIZE SWAP1 DUP2 ADD PUSH1 0x1F NOT AND DUP3 ADD PUSH1 0x40 MSTORE PUSH2 0xEA9 SWAP2 SWAP1 DUP2 ADD SWAP1 PUSH2 0x1A8F JUMP JUMPDEST PUSH1 0x1 DUP2 MLOAD DUP2 LT PUSH2 0xEBB JUMPI PUSH2 0xEBB PUSH2 0x1734 JUMP JUMPDEST POP PUSH1 0x1 SWAP3 POP PUSH2 0xEC8 SWAP2 POP POP JUMP JUMPDEST SWAP5 SWAP4 POP POP POP POP JUMP JUMPDEST PUSH1 0x1 PUSH1 0x1 PUSH1 0xA0 SHL SUB DUP3 AND PUSH1 0x0 SWAP1 DUP2 MSTORE PUSH1 0x4 PUSH1 0x20 SWAP1 DUP2 MSTORE PUSH1 0x40 DUP1 DUP4 KECCAK256 DUP5 DUP5 MSTORE SWAP1 SWAP2 MSTORE DUP2 KECCAK256 PUSH1 0x60 SWAP2 SWAP1 PUSH2 0xF00 SWAP1 PUSH2 0x109F JUMP JUMPDEST SWAP1 POP PUSH1 0x0 DUP2 PUSH8 0xFFFFFFFFFFFFFFFF DUP2 GT ISZERO PUSH2 0xF1D JUMPI PUSH2 0xF1D PUSH2 0x171E JUMP JUMPDEST PUSH1 0x40 MLOAD SWAP1 DUP1 DUP3 MSTORE DUP1 PUSH1 0x20 MUL PUSH1 0x20 ADD DUP3 ADD PUSH1 0x40 MSTORE DUP1 ISZERO PUSH2 0xF46 JUMPI DUP2 PUSH1 0x20 ADD PUSH1 0x20 DUP3 MUL DUP1 CALLDATASIZE DUP4 CALLDATACOPY ADD SWAP1 POP JUMPDEST POP SWAP1 POP PUSH1 0x0 JUMPDEST DUP3 DUP2 LT ISZERO PUSH2 0xFB0 JUMPI PUSH1 0x1 PUSH1 0x1 PUSH1 0xA0 SHL SUB DUP7 AND PUSH1 0x0 SWAP1 DUP2 MSTORE PUSH1 0x4 PUSH1 0x20 SWAP1 DUP2 MSTORE PUSH1 0x40 DUP1 DUP4 KECCAK256 DUP9 DUP5 MSTORE SWAP1 SWAP2 MSTORE SWAP1 KECCAK256 PUSH2 0xF81 SWAP1 DUP3 PUSH2 0x10A9 JUMP JUMPDEST DUP3 DUP3 DUP2 MLOAD DUP2 LT PUSH2 0xF93 JUMPI PUSH2 0xF93 PUSH2 0x1734 JUMP JUMPDEST PUSH1 0x20 SWAP1 DUP2 MUL SWAP2 SWAP1 SWAP2 ADD ADD MSTORE DUP1 PUSH2 0xFA8 DUP2 PUSH2 0x1760 JUMP JUMPDEST SWAP2 POP POP PUSH2 0xF4C JUMP JUMPDEST POP SWAP5 SWAP4 POP POP POP POP JUMP JUMPDEST PUSH1 0x1 SLOAD PUSH1 0x1 PUSH1 0x1 PUSH1 0xA0 SHL SUB AND CALLER EQ PUSH2 0x1013 JUMPI PUSH1 0x40 MLOAD PUSH3 0x461BCD PUSH1 0xE5 SHL DUP2 MSTORE PUSH1 0x20 PUSH1 0x4 DUP3 ADD DUP2 SWAP1 MSTORE PUSH1 0x24 DUP3 ADD MSTORE PUSH32 0x4F776E61626C653A2063616C6C6572206973206E6F7420746865206F776E6572 PUSH1 0x44 DUP3 ADD MSTORE PUSH1 0x64 ADD PUSH2 0x364 JUMP JUMPDEST PUSH1 0x1 PUSH1 0x1 PUSH1 0xA0 SHL SUB DUP2 AND PUSH2 0x1078 JUMPI PUSH1 0x40 MLOAD PUSH3 0x461BCD PUSH1 0xE5 SHL DUP2 MSTORE PUSH1 0x20 PUSH1 0x4 DUP3 ADD MSTORE PUSH1 0x26 PUSH1 0x24 DUP3 ADD MSTORE PUSH32 0x4F776E61626C653A206E6577206F776E657220697320746865207A65726F2061 PUSH1 0x44 DUP3 ADD MSTORE PUSH6 0x646472657373 PUSH1 0xD0 SHL PUSH1 0x64 DUP3 ADD MSTORE PUSH1 0x84 ADD PUSH2 0x364 JUMP JUMPDEST PUSH2 0x1081 DUP2 PUSH2 0x111F JUMP JUMPDEST POP JUMP JUMPDEST PUSH1 0x0 DUP2 DUP2 MSTORE PUSH1 0x1 DUP4 ADD PUSH1 0x20 MSTORE PUSH1 0x40 DUP2 KECCAK256 SLOAD ISZERO ISZERO JUMPDEST SWAP4 SWAP3 POP POP POP JUMP JUMPDEST PUSH1 0x0 PUSH2 0x3BC DUP3 SLOAD SWAP1 JUMP JUMPDEST PUSH1 0x0 PUSH2 0x1098 DUP4 DUP4 PUSH2 0x117D JUMP JUMPDEST PUSH1 0x0 JUMPDEST DUP2 MLOAD DUP2 LT ISZERO PUSH2 0x110F JUMPI PUSH1 0x0 DUP3 DUP3 DUP2 MLOAD DUP2 LT PUSH2 0x10D5 JUMPI PUSH2 0x10D5 PUSH2 0x1734 JUMP JUMPDEST PUSH1 0x20 MUL PUSH1 0x20 ADD ADD MLOAD SWAP1 POP PUSH1 0x0 DUP1 SHL DUP2 PUSH1 0x0 ADD MLOAD EQ ISZERO PUSH2 0x10F3 JUMPI POP POP POP JUMP JUMPDEST PUSH2 0x10FC DUP2 PUSH2 0x11A7 JUMP JUMPDEST POP DUP1 PUSH2 0x1107 DUP2 PUSH2 0x1760 JUMP JUMPDEST SWAP2 POP POP PUSH2 0x10B8 JUMP JUMPDEST POP POP JUMP JUMPDEST PUSH1 0x0 PUSH2 0x1098 DUP4 DUP4 PUSH2 0x1344 JUMP JUMPDEST PUSH1 0x1 DUP1 SLOAD PUSH1 0x1 PUSH1 0x1 PUSH1 0xA0 SHL SUB DUP4 DUP2 AND PUSH1 0x1 PUSH1 0x1 PUSH1 0xA0 SHL SUB NOT DUP4 AND DUP2 OR SWAP1 SWAP4 SSTORE PUSH1 0x40 MLOAD SWAP2 AND SWAP2 SWAP1 DUP3 SWAP1 PUSH32 0x8BE0079C531659141344CD1FD0A4F28419497F9722A3DAAFE3B4186F6B6457E0 SWAP1 PUSH1 0x0 SWAP1 LOG3 POP POP JUMP JUMPDEST PUSH1 0x0 PUSH2 0x1098 DUP4 DUP4 PUSH2 0x1393 JUMP JUMPDEST PUSH1 0x0 DUP3 PUSH1 0x0 ADD DUP3 DUP2 SLOAD DUP2 LT PUSH2 0x1194 JUMPI PUSH2 0x1194 PUSH2 0x1734 JUMP JUMPDEST SWAP1 PUSH1 0x0 MSTORE PUSH1 0x20 PUSH1 0x0 KECCAK256 ADD SLOAD SWAP1 POP SWAP3 SWAP2 POP POP JUMP JUMPDEST PUSH1 0x20 DUP2 ADD MLOAD MLOAD PUSH2 0x11B4 JUMPI POP JUMP JUMPDEST DUP1 MLOAD PUSH2 0x11C2 SWAP1 PUSH1 0x6 SWAP1 PUSH2 0x1084 JUMP JUMPDEST PUSH2 0x11C9 JUMPI POP JUMP JUMPDEST DUP1 MLOAD PUSH1 0x0 SWAP1 DUP2 MSTORE PUSH1 0x5 PUSH1 0x20 MSTORE PUSH1 0x40 DUP2 KECCAK256 DUP1 SLOAD PUSH1 0x1 DUP3 ADD SLOAD SWAP2 SWAP3 PUSH1 0x1 PUSH1 0x1 PUSH1 0xA0 SHL SUB SWAP2 DUP3 AND SWAP3 SWAP1 SWAP2 AND SWAP1 JUMPDEST DUP5 PUSH1 0x20 ADD MLOAD MLOAD DUP2 LT ISZERO PUSH2 0x133D JUMPI PUSH1 0x0 DUP6 PUSH1 0x20 ADD MLOAD DUP3 DUP2 MLOAD DUP2 LT PUSH2 0x1218 JUMPI PUSH2 0x1218 PUSH2 0x1734 JUMP JUMPDEST PUSH1 0x20 MUL PUSH1 0x20 ADD ADD MLOAD SWAP1 POP PUSH1 0x0 DUP1 SHL DUP2 EQ ISZERO PUSH2 0x1233 JUMPI POP PUSH2 0x133D JUMP JUMPDEST PUSH2 0x1240 PUSH1 0x3 DUP7 ADD DUP3 PUSH2 0x1084 JUMP JUMPDEST PUSH2 0x124A JUMPI POP PUSH2 0x133D JUMP JUMPDEST PUSH1 0x0 DUP2 DUP2 MSTORE PUSH1 0x2 DUP1 DUP8 ADD PUSH1 0x20 MSTORE PUSH1 0x40 SWAP1 SWAP2 KECCAK256 PUSH1 0x3 DUP2 ADD SLOAD SWAP2 DUP2 ADD SLOAD SWAP1 SWAP2 PUSH2 0x1270 SWAP2 PUSH2 0x1944 JUMP JUMPDEST TIMESTAMP GT PUSH2 0x127D JUMPI POP POP PUSH2 0x133D JUMP JUMPDEST PUSH1 0x1 DUP2 ADD SLOAD DUP2 SLOAD PUSH1 0x1 PUSH1 0x1 PUSH1 0xA0 SHL SUB AND PUSH1 0x0 PUSH2 0x129B DUP9 DUP9 DUP6 DUP6 PUSH2 0xC19 JUMP JUMPDEST SWAP1 POP DUP1 ISZERO PUSH2 0x12E9 JUMPI TIMESTAMP PUSH1 0x2 DUP6 ADD SSTORE DUP10 MLOAD PUSH1 0x40 DUP1 MLOAD SWAP2 DUP3 MSTORE PUSH1 0x20 DUP3 ADD DUP8 SWAP1 MSTORE PUSH32 0x5DB58C70037AA768B73C40C300AFD09C428BC4BF9E881D02EB2A5F0E6FA295F9 SWAP2 ADD PUSH1 0x40 MLOAD DUP1 SWAP2 SUB SWAP1 LOG1 PUSH2 0x1325 JUMP JUMPDEST DUP10 MLOAD PUSH1 0x40 DUP1 MLOAD SWAP2 DUP3 MSTORE PUSH1 0x20 DUP3 ADD DUP8 SWAP1 MSTORE PUSH32 0x26916B3AEE826C0F5BF6F8AFA7138F7DB313ADA074B6BE7BA10AC7B28CCF51C8 SWAP2 ADD PUSH1 0x40 MLOAD DUP1 SWAP2 SUB SWAP1 LOG1 JUMPDEST POP POP POP POP POP DUP1 DUP1 PUSH2 0x1335 SWAP1 PUSH2 0x1760 JUMP JUMPDEST SWAP2 POP POP PUSH2 0x11F3 JUMP JUMPDEST POP POP POP POP POP JUMP JUMPDEST PUSH1 0x0 DUP2 DUP2 MSTORE PUSH1 0x1 DUP4 ADD PUSH1 0x20 MSTORE PUSH1 0x40 DUP2 KECCAK256 SLOAD PUSH2 0x138B JUMPI POP DUP2 SLOAD PUSH1 0x1 DUP2 DUP2 ADD DUP5 SSTORE PUSH1 0x0 DUP5 DUP2 MSTORE PUSH1 0x20 DUP1 DUP3 KECCAK256 SWAP1 SWAP4 ADD DUP5 SWAP1 SSTORE DUP5 SLOAD DUP5 DUP3 MSTORE DUP3 DUP7 ADD SWAP1 SWAP4 MSTORE PUSH1 0x40 SWAP1 KECCAK256 SWAP2 SWAP1 SWAP2 SSTORE PUSH2 0x3BC JUMP JUMPDEST POP PUSH1 0x0 PUSH2 0x3BC JUMP JUMPDEST PUSH1 0x0 DUP2 DUP2 MSTORE PUSH1 0x1 DUP4 ADD PUSH1 0x20 MSTORE PUSH1 0x40 DUP2 KECCAK256 SLOAD DUP1 ISZERO PUSH2 0x147C JUMPI PUSH1 0x0 PUSH2 0x13B7 PUSH1 0x1 DUP4 PUSH2 0x1B20 JUMP JUMPDEST DUP6 SLOAD SWAP1 SWAP2 POP PUSH1 0x0 SWAP1 PUSH2 0x13CB SWAP1 PUSH1 0x1 SWAP1 PUSH2 0x1B20 JUMP JUMPDEST SWAP1 POP DUP2 DUP2 EQ PUSH2 0x1430 JUMPI PUSH1 0x0 DUP7 PUSH1 0x0 ADD DUP3 DUP2 SLOAD DUP2 LT PUSH2 0x13EB JUMPI PUSH2 0x13EB PUSH2 0x1734 JUMP JUMPDEST SWAP1 PUSH1 0x0 MSTORE PUSH1 0x20 PUSH1 0x0 KECCAK256 ADD SLOAD SWAP1 POP DUP1 DUP8 PUSH1 0x0 ADD DUP5 DUP2 SLOAD DUP2 LT PUSH2 0x140E JUMPI PUSH2 0x140E PUSH2 0x1734 JUMP JUMPDEST PUSH1 0x0 SWAP2 DUP3 MSTORE PUSH1 0x20 DUP1 DUP4 KECCAK256 SWAP1 SWAP2 ADD SWAP3 SWAP1 SWAP3 SSTORE SWAP2 DUP3 MSTORE PUSH1 0x1 DUP9 ADD SWAP1 MSTORE PUSH1 0x40 SWAP1 KECCAK256 DUP4 SWAP1 SSTORE JUMPDEST DUP6 SLOAD DUP7 SWAP1 DUP1 PUSH2 0x1441 JUMPI PUSH2 0x1441 PUSH2 0x1B37 JUMP JUMPDEST PUSH1 0x1 SWAP1 SUB DUP2 DUP2 SWAP1 PUSH1 0x0 MSTORE PUSH1 0x20 PUSH1 0x0 KECCAK256 ADD PUSH1 0x0 SWAP1 SSTORE SWAP1 SSTORE DUP6 PUSH1 0x1 ADD PUSH1 0x0 DUP7 DUP2 MSTORE PUSH1 0x20 ADD SWAP1 DUP2 MSTORE PUSH1 0x20 ADD PUSH1 0x0 KECCAK256 PUSH1 0x0 SWAP1 SSTORE PUSH1 0x1 SWAP4 POP POP POP POP PUSH2 0x3BC JUMP JUMPDEST PUSH1 0x0 SWAP2 POP POP PUSH2 0x3BC JUMP JUMPDEST PUSH1 0x0 DUP1 PUSH1 0x40 DUP4 DUP6 SUB SLT ISZERO PUSH2 0x1499 JUMPI PUSH1 0x0 DUP1 REVERT JUMPDEST POP POP DUP1 CALLDATALOAD SWAP3 PUSH1 0x20 SWAP1 SWAP2 ADD CALLDATALOAD SWAP2 POP JUMP JUMPDEST PUSH1 0x1 PUSH1 0x1 PUSH1 0xA0 SHL SUB DUP2 AND DUP2 EQ PUSH2 0x1081 JUMPI PUSH1 0x0 DUP1 REVERT JUMPDEST PUSH1 0x0 PUSH1 0x20 DUP3 DUP5 SUB SLT ISZERO PUSH2 0x14CF JUMPI PUSH1 0x0 DUP1 REVERT JUMPDEST DUP2 CALLDATALOAD PUSH2 0x1098 DUP2 PUSH2 0x14A8 JUMP JUMPDEST PUSH1 0x20 DUP1 DUP3 MSTORE DUP3 MLOAD DUP3 DUP3 ADD DUP2 SWAP1 MSTORE PUSH1 0x0 SWAP2 SWAP1 DUP5 DUP3 ADD SWAP1 PUSH1 0x40 DUP6 ADD SWAP1 DUP5 JUMPDEST DUP2 DUP2 LT ISZERO PUSH2 0x1512 JUMPI DUP4 MLOAD DUP4 MSTORE SWAP3 DUP5 ADD SWAP3 SWAP2 DUP5 ADD SWAP2 PUSH1 0x1 ADD PUSH2 0x14F6 JUMP JUMPDEST POP SWAP1 SWAP7 SWAP6 POP POP POP POP POP POP JUMP JUMPDEST PUSH1 0x0 DUP1 PUSH1 0x20 DUP4 DUP6 SUB SLT ISZERO PUSH2 0x1531 JUMPI PUSH1 0x0 DUP1 REVERT JUMPDEST DUP3 CALLDATALOAD PUSH8 0xFFFFFFFFFFFFFFFF DUP1 DUP3 GT ISZERO PUSH2 0x1549 JUMPI PUSH1 0x0 DUP1 REVERT JUMPDEST DUP2 DUP6 ADD SWAP2 POP DUP6 PUSH1 0x1F DUP4 ADD SLT PUSH2 0x155D JUMPI PUSH1 0x0 DUP1 REVERT JUMPDEST DUP2 CALLDATALOAD DUP2 DUP2 GT ISZERO PUSH2 0x156C JUMPI PUSH1 0x0 DUP1 REVERT JUMPDEST DUP7 PUSH1 0x20 DUP3 DUP6 ADD ADD GT ISZERO PUSH2 0x157E JUMPI PUSH1 0x0 DUP1 REVERT JUMPDEST PUSH1 0x20 SWAP3 SWAP1 SWAP3 ADD SWAP7 SWAP2 SWAP6 POP SWAP1 SWAP4 POP POP POP POP JUMP JUMPDEST PUSH1 0x0 DUP1 PUSH1 0x0 DUP1 PUSH1 0x0 PUSH1 0xA0 DUP7 DUP9 SUB SLT ISZERO PUSH2 0x15A8 JUMPI PUSH1 0x0 DUP1 REVERT JUMPDEST DUP6 CALLDATALOAD PUSH2 0x15B3 DUP2 PUSH2 0x14A8 JUMP JUMPDEST SWAP5 POP PUSH1 0x20 DUP7 ADD CALLDATALOAD PUSH2 0x15C3 DUP2 PUSH2 0x14A8 JUMP JUMPDEST SWAP5 SWAP8 SWAP5 SWAP7 POP POP POP POP PUSH1 0x40 DUP4 ADD CALLDATALOAD SWAP3 PUSH1 0x60 DUP2 ADD CALLDATALOAD SWAP3 PUSH1 0x80 SWAP1 SWAP2 ADD CALLDATALOAD SWAP2 POP JUMP JUMPDEST DUP3 ISZERO ISZERO DUP2 MSTORE PUSH1 0x0 PUSH1 0x20 PUSH1 0x40 DUP2 DUP5 ADD MSTORE DUP4 MLOAD DUP1 PUSH1 0x40 DUP6 ADD MSTORE PUSH1 0x0 JUMPDEST DUP2 DUP2 LT ISZERO PUSH2 0x1617 JUMPI DUP6 DUP2 ADD DUP4 ADD MLOAD DUP6 DUP3 ADD PUSH1 0x60 ADD MSTORE DUP3 ADD PUSH2 0x15FB JUMP JUMPDEST DUP2 DUP2 GT ISZERO PUSH2 0x1629 JUMPI PUSH1 0x0 PUSH1 0x60 DUP4 DUP8 ADD ADD MSTORE JUMPDEST POP PUSH1 0x1F ADD PUSH1 0x1F NOT AND SWAP3 SWAP1 SWAP3 ADD PUSH1 0x60 ADD SWAP5 SWAP4 POP POP POP POP JUMP JUMPDEST PUSH1 0x0 DUP1 PUSH1 0x0 DUP1 PUSH1 0x80 DUP6 DUP8 SUB SLT ISZERO PUSH2 0x1656 JUMPI PUSH1 0x0 DUP1 REVERT JUMPDEST DUP5 CALLDATALOAD PUSH2 0x1661 DUP2 PUSH2 0x14A8 JUMP JUMPDEST SWAP4 POP PUSH1 0x20 DUP6 ADD CALLDATALOAD PUSH2 0x1671 DUP2 PUSH2 0x14A8 JUMP JUMPDEST SWAP4 SWAP7 SWAP4 SWAP6 POP POP POP POP PUSH1 0x40 DUP3 ADD CALLDATALOAD SWAP2 PUSH1 0x60 ADD CALLDATALOAD SWAP1 JUMP JUMPDEST PUSH1 0x0 PUSH1 0x20 DUP3 DUP5 SUB SLT ISZERO PUSH2 0x1698 JUMPI PUSH1 0x0 DUP1 REVERT JUMPDEST POP CALLDATALOAD SWAP2 SWAP1 POP JUMP JUMPDEST PUSH1 0x0 DUP1 PUSH1 0x0 DUP1 PUSH1 0x80 DUP6 DUP8 SUB SLT ISZERO PUSH2 0x16B5 JUMPI PUSH1 0x0 DUP1 REVERT JUMPDEST DUP5 CALLDATALOAD PUSH2 0x16C0 DUP2 PUSH2 0x14A8 JUMP JUMPDEST SWAP4 POP PUSH1 0x20 DUP6 ADD CALLDATALOAD PUSH2 0x16D0 DUP2 PUSH2 0x14A8 JUMP JUMPDEST SWAP3 POP PUSH1 0x40 DUP6 ADD CALLDATALOAD SWAP2 POP PUSH1 0x60 DUP6 ADD CALLDATALOAD PUSH2 0x16E7 DUP2 PUSH2 0x14A8 JUMP JUMPDEST SWAP4 SWAP7 SWAP3 SWAP6 POP SWAP1 SWAP4 POP POP JUMP JUMPDEST PUSH1 0x0 DUP1 PUSH1 0x40 DUP4 DUP6 SUB SLT ISZERO PUSH2 0x1705 JUMPI PUSH1 0x0 DUP1 REVERT JUMPDEST DUP3 CALLDATALOAD PUSH2 0x1710 DUP2 PUSH2 0x14A8 JUMP JUMPDEST SWAP5 PUSH1 0x20 SWAP4 SWAP1 SWAP4 ADD CALLDATALOAD SWAP4 POP POP POP JUMP JUMPDEST PUSH4 0x4E487B71 PUSH1 0xE0 SHL PUSH1 0x0 MSTORE PUSH1 0x41 PUSH1 0x4 MSTORE PUSH1 0x24 PUSH1 0x0 REVERT JUMPDEST PUSH4 0x4E487B71 PUSH1 0xE0 SHL PUSH1 0x0 MSTORE PUSH1 0x32 PUSH1 0x4 MSTORE PUSH1 0x24 PUSH1 0x0 REVERT JUMPDEST PUSH4 0x4E487B71 PUSH1 0xE0 SHL PUSH1 0x0 MSTORE PUSH1 0x11 PUSH1 0x4 MSTORE PUSH1 0x24 PUSH1 0x0 REVERT JUMPDEST PUSH1 0x0 PUSH1 0x0 NOT DUP3 EQ ISZERO PUSH2 0x1774 JUMPI PUSH2 0x1774 PUSH2 0x174A JUMP JUMPDEST POP PUSH1 0x1 ADD SWAP1 JUMP JUMPDEST PUSH1 0x40 DUP1 MLOAD SWAP1 DUP2 ADD PUSH8 0xFFFFFFFFFFFFFFFF DUP2 GT DUP3 DUP3 LT OR ISZERO PUSH2 0x179E JUMPI PUSH2 0x179E PUSH2 0x171E JUMP JUMPDEST PUSH1 0x40 MSTORE SWAP1 JUMP JUMPDEST PUSH1 0x40 MLOAD PUSH1 0x1F DUP3 ADD PUSH1 0x1F NOT AND DUP2 ADD PUSH8 0xFFFFFFFFFFFFFFFF DUP2 GT DUP3 DUP3 LT OR ISZERO PUSH2 0x17CD JUMPI PUSH2 0x17CD PUSH2 0x171E JUMP JUMPDEST PUSH1 0x40 MSTORE SWAP2 SWAP1 POP JUMP JUMPDEST PUSH1 0x0 PUSH8 0xFFFFFFFFFFFFFFFF DUP3 GT ISZERO PUSH2 0x17EF JUMPI PUSH2 0x17EF PUSH2 0x171E JUMP JUMPDEST POP PUSH1 0x5 SHL PUSH1 0x20 ADD SWAP1 JUMP JUMPDEST PUSH1 0x0 PUSH1 0x20 DUP1 DUP4 DUP6 SUB SLT ISZERO PUSH2 0x180C JUMPI PUSH1 0x0 DUP1 REVERT JUMPDEST DUP3 CALLDATALOAD PUSH8 0xFFFFFFFFFFFFFFFF DUP1 DUP3 GT ISZERO PUSH2 0x1824 JUMPI PUSH1 0x0 DUP1 REVERT JUMPDEST DUP2 DUP6 ADD SWAP2 POP DUP6 PUSH1 0x1F DUP4 ADD SLT PUSH2 0x1838 JUMPI PUSH1 0x0 DUP1 REVERT JUMPDEST DUP2 CALLDATALOAD PUSH2 0x184B PUSH2 0x1846 DUP3 PUSH2 0x17D5 JUMP JUMPDEST PUSH2 0x17A4 JUMP JUMPDEST DUP2 DUP2 MSTORE PUSH1 0x5 SWAP2 SWAP1 SWAP2 SHL DUP4 ADD DUP5 ADD SWAP1 DUP5 DUP2 ADD SWAP1 DUP9 DUP4 GT ISZERO PUSH2 0x186A JUMPI PUSH1 0x0 DUP1 REVERT JUMPDEST DUP6 DUP6 ADD JUMPDEST DUP4 DUP2 LT ISZERO PUSH2 0x1937 JUMPI DUP1 CALLDATALOAD DUP6 DUP2 GT ISZERO PUSH2 0x1886 JUMPI PUSH1 0x0 DUP1 DUP2 REVERT JUMPDEST DUP7 ADD PUSH1 0x40 DUP2 DUP13 SUB PUSH1 0x1F NOT ADD DUP2 SGT ISZERO PUSH2 0x189E JUMPI PUSH1 0x0 DUP1 DUP2 REVERT JUMPDEST PUSH2 0x18A6 PUSH2 0x177B JUMP JUMPDEST DUP10 DUP4 ADD CALLDATALOAD DUP2 MSTORE DUP2 DUP4 ADD CALLDATALOAD DUP9 DUP2 GT ISZERO PUSH2 0x18BE JUMPI PUSH1 0x0 DUP1 DUP2 REVERT JUMPDEST DUP1 DUP5 ADD SWAP4 POP POP DUP13 PUSH1 0x3F DUP5 ADD SLT PUSH2 0x18D4 JUMPI PUSH1 0x0 DUP1 DUP2 REVERT JUMPDEST DUP10 DUP4 ADD CALLDATALOAD PUSH2 0x18E4 PUSH2 0x1846 DUP3 PUSH2 0x17D5 JUMP JUMPDEST DUP2 DUP2 MSTORE PUSH1 0x5 SWAP2 SWAP1 SWAP2 SHL DUP5 ADD DUP4 ADD SWAP1 DUP12 DUP2 ADD SWAP1 DUP16 DUP4 GT ISZERO PUSH2 0x1904 JUMPI PUSH1 0x0 DUP1 DUP2 REVERT JUMPDEST SWAP5 DUP5 ADD SWAP5 JUMPDEST DUP3 DUP7 LT ISZERO PUSH2 0x1922 JUMPI DUP6 CALLDATALOAD DUP3 MSTORE SWAP5 DUP13 ADD SWAP5 SWAP1 DUP13 ADD SWAP1 PUSH2 0x1909 JUMP JUMPDEST DUP4 DUP14 ADD MSTORE POP POP DUP6 MSTORE POP POP SWAP2 DUP7 ADD SWAP2 DUP7 ADD PUSH2 0x186E JUMP JUMPDEST POP SWAP9 SWAP8 POP POP POP POP POP POP POP POP JUMP JUMPDEST PUSH1 0x0 DUP3 NOT DUP3 GT ISZERO PUSH2 0x1957 JUMPI PUSH2 0x1957 PUSH2 0x174A JUMP JUMPDEST POP ADD SWAP1 JUMP JUMPDEST PUSH1 0x0 PUSH1 0x20 DUP1 DUP4 ADD DUP2 DUP5 MSTORE DUP1 DUP6 MLOAD DUP1 DUP4 MSTORE PUSH1 0x40 SWAP3 POP DUP3 DUP7 ADD SWAP2 POP DUP3 DUP2 PUSH1 0x5 SHL DUP8 ADD ADD DUP5 DUP9 ADD PUSH1 0x0 DUP1 JUMPDEST DUP5 DUP2 LT ISZERO PUSH2 0x19ED JUMPI DUP10 DUP5 SUB PUSH1 0x3F NOT ADD DUP7 MSTORE DUP3 MLOAD DUP1 MLOAD DUP6 MSTORE DUP9 ADD MLOAD DUP9 DUP6 ADD DUP9 SWAP1 MSTORE DUP1 MLOAD DUP9 DUP7 ADD DUP2 SWAP1 MSTORE SWAP1 DUP10 ADD SWAP1 DUP4 SWAP1 PUSH1 0x60 DUP8 ADD SWAP1 JUMPDEST DUP1 DUP4 LT ISZERO PUSH2 0x19D8 JUMPI DUP4 MLOAD DUP3 MSTORE SWAP3 DUP12 ADD SWAP3 PUSH1 0x1 SWAP3 SWAP1 SWAP3 ADD SWAP2 SWAP1 DUP12 ADD SWAP1 PUSH2 0x19B8 JUMP JUMPDEST POP SWAP8 DUP11 ADD SWAP8 SWAP6 POP POP POP SWAP2 DUP8 ADD SWAP2 PUSH1 0x1 ADD PUSH2 0x1984 JUMP JUMPDEST POP SWAP2 SWAP10 SWAP9 POP POP POP POP POP POP POP POP POP JUMP JUMPDEST PUSH1 0x0 PUSH1 0x20 DUP3 DUP5 SUB SLT ISZERO PUSH2 0x1A0E JUMPI PUSH1 0x0 DUP1 REVERT JUMPDEST DUP2 MLOAD DUP1 ISZERO ISZERO DUP2 EQ PUSH2 0x1098 JUMPI PUSH1 0x0 DUP1 REVERT JUMPDEST PUSH1 0x0 PUSH1 0xA0 DUP3 ADD DUP8 DUP4 MSTORE PUSH1 0x20 DUP8 DUP2 DUP6 ADD MSTORE PUSH1 0xA0 PUSH1 0x40 DUP6 ADD MSTORE DUP2 DUP8 MLOAD DUP1 DUP5 MSTORE PUSH1 0xC0 DUP7 ADD SWAP2 POP DUP3 DUP10 ADD SWAP4 POP PUSH1 0x0 JUMPDEST DUP2 DUP2 LT ISZERO PUSH2 0x1A6E JUMPI DUP5 MLOAD PUSH1 0x1 PUSH1 0x1 PUSH1 0xA0 SHL SUB AND DUP4 MSTORE SWAP4 DUP4 ADD SWAP4 SWAP2 DUP4 ADD SWAP2 PUSH1 0x1 ADD PUSH2 0x1A49 JUMP JUMPDEST POP POP PUSH1 0x1 PUSH1 0x1 PUSH1 0xA0 SHL SUB SWAP7 SWAP1 SWAP7 AND PUSH1 0x60 DUP6 ADD MSTORE POP POP POP PUSH1 0x80 ADD MSTORE SWAP4 SWAP3 POP POP POP JUMP JUMPDEST PUSH1 0x0 PUSH1 0x20 DUP1 DUP4 DUP6 SUB SLT ISZERO PUSH2 0x1AA2 JUMPI PUSH1 0x0 DUP1 REVERT JUMPDEST DUP3 MLOAD PUSH8 0xFFFFFFFFFFFFFFFF DUP2 GT ISZERO PUSH2 0x1AB9 JUMPI PUSH1 0x0 DUP1 REVERT JUMPDEST DUP4 ADD PUSH1 0x1F DUP2 ADD DUP6 SGT PUSH2 0x1ACA JUMPI PUSH1 0x0 DUP1 REVERT JUMPDEST DUP1 MLOAD PUSH2 0x1AD8 PUSH2 0x1846 DUP3 PUSH2 0x17D5 JUMP JUMPDEST DUP2 DUP2 MSTORE PUSH1 0x5 SWAP2 SWAP1 SWAP2 SHL DUP3 ADD DUP4 ADD SWAP1 DUP4 DUP2 ADD SWAP1 DUP8 DUP4 GT ISZERO PUSH2 0x1AF7 JUMPI PUSH1 0x0 DUP1 REVERT JUMPDEST SWAP3 DUP5 ADD SWAP3 JUMPDEST DUP3 DUP5 LT ISZERO PUSH2 0x1B15 JUMPI DUP4 MLOAD DUP3 MSTORE SWAP3 DUP5 ADD SWAP3 SWAP1 DUP5 ADD SWAP1 PUSH2 0x1AFC JUMP JUMPDEST SWAP8 SWAP7 POP POP POP POP POP POP POP JUMP JUMPDEST PUSH1 0x0 DUP3 DUP3 LT ISZERO PUSH2 0x1B32 JUMPI PUSH2 0x1B32 PUSH2 0x174A JUMP JUMPDEST POP SUB SWAP1 JUMP JUMPDEST PUSH4 0x4E487B71 PUSH1 0xE0 SHL PUSH1 0x0 MSTORE PUSH1 0x31 PUSH1 0x4 MSTORE PUSH1 0x24 PUSH1 0x0 REVERT INVALID LOG2 PUSH5 0x6970667358 0x22 SLT KECCAK256 EXTCODESIZE SWAP14 0xC3 0xF 0xBC 0xED 0xC8 0xD4 SELFBALANCE GASLIMIT 0xE9 KECCAK256 PUSH22 0x597932CDCDE9976420B7B9B2D1BD9052E8DF2D64736F PUSH13 0x63430008090033000000000000 ",
  "sha1": "5de422ac45087d603738186f38559f15ec378978",
  "source": "// SPDX-License-Identifier: MIT\npragma solidity ^0.8.0;\n\nimport \"@openzeppelin/contracts/utils/structs/EnumerableSet.sol\";\nimport { ExchangeAdapter } from \"./ExchangeAdapter.sol\";\nimport { IERC20 } from \"@openzeppelin/contracts/token/ERC20/IERC20.sol\";\nimport { IUniswapV2Router02 } from \"@uniswap-periphery/contracts/interfaces/IUniswapV2Router02.sol\";\n\ninterface KeeperCompatibleInterface {\n    function checkUpkeep(bytes calldata checkData)\n        external\n        returns (bool upkeepNeeded, bytes memory performData);\n\n    function performUpkeep(bytes calldata performData) external;\n}\n\ncontract Trickle is KeeperCompatibleInterface, ExchangeAdapter {\n    using EnumerableSet for EnumerableSet.Bytes32Set;\n\n    /* ============ Structs ========== */\n\n    // This struct represents a single recurring order set by a user\n    struct RecurringOrder {\n        address user;\n        uint256 sellAmount;\n        uint256 lastExecution;\n        uint256 interval;\n    }\n\n    // This struct represents the combination of sell / buy token and all the orders for that pair\n    struct TokenPair {\n        address sellToken;\n        address buyToken;\n        mapping(bytes32 => RecurringOrder) orders;\n        EnumerableSet.Bytes32Set registeredOrders;\n    }\n\n    // Data structure to return in checkUpkeep defining which orders will need to get executed\n    struct TokenPairPendingOrders {\n        bytes32 tokenPairHash;\n        bytes32[] orders;\n    }\n\n    /* ============ Events ========== */\n    event TokenPairCreated(address sellToken, address buyToken);\n\n    event RecurringOrderUpdated(\n        address sellToken,\n        address buyToken,\n        uint256 sellAmount,\n        uint256 interval,\n        uint256 startTimestamp\n    );\n\n    event SwapFailed(bytes32 tokenPairHash, bytes32 orderHash);\n    event SwapSucceeded(bytes32 tokenPairHash, bytes32 orderHash);\n\n    /* ============ State Varibles ========== */\n    // Enumerable mappings to be able to later iterate over the orders of a single user\n    mapping(address => EnumerableSet.Bytes32Set) userToTokenPairList;\n    mapping(address => mapping(bytes32 => EnumerableSet.Bytes32Set)) userToOrderHash;\n\n    // Mapping of a hash of sell / buy token on the TokenPair data\n    mapping(bytes32 => TokenPair) tokenPairs;\n    // Register initialized pairs in an enumerable set to be able to iterate over them\n    EnumerableSet.Bytes32Set initializedTokenPairs;\n\n    uint256 public minimumUpkeepInterval;\n    uint256 lastUpkeep;\n\n    /* ============ Public Methods ========== */\n\n    /**\n     * Creates new instance of Trickle contract\n     *\n     * @param _minimumUpkeepInterval   Minimum interval between upkeeps independent of users orders\n     * @param _exchangeRouter          Address of Sushiswap / UniswapV2 router contract to execute trades against\n     *\n     */\n    constructor(\n        uint256 _minimumUpkeepInterval,\n        IUniswapV2Router02 _exchangeRouter\n    ) public ExchangeAdapter(_exchangeRouter) {\n        minimumUpkeepInterval = _minimumUpkeepInterval;\n    }\n\n    /**\n     * Creates a new recurring order for the given User starting immediately.\n     *\n     * @param _sellToken        Address of token to sell\n     * @param _buyToken         Address of token to buy\n     * @param _sellAmount       Amount of sell token to sell in each trade\n     * @param _interval         Interval of execution in ms\n     *\n     */\n    function setRecurringOrder(\n        address _sellToken,\n        address _buyToken,\n        uint256 _sellAmount,\n        uint256 _interval\n    ) public {\n        setRecurringOrderWithStartTimestamp(\n            _sellToken,\n            _buyToken,\n            _sellAmount,\n            _interval,\n            0\n        );\n    }\n\n    /**\n     * Creates a new recurring order for the given User starting from the given block timestamp.\n     *\n     * @param _sellToken        Address of token to sell\n     * @param _buyToken         Address of token to buy\n     * @param _sellAmount       Amount of sell token to sell in each trade\n     * @param _interval         Interval of execution in ms\n     * @param _startTimestamp   Block timestamp from which to start the execution of this order\n     *\n     */\n    function setRecurringOrderWithStartTimestamp(\n        address _sellToken,\n        address _buyToken,\n        uint256 _sellAmount,\n        uint256 _interval,\n        uint256 _startTimestamp\n    ) public {\n        require(_sellAmount > 0, \"amount cannot be 0\");\n        require(_sellToken != address(0), \"sellToken cannot be zero address\");\n        require(_buyToken != address(0), \"buyToken cannot be zero address\");\n        require(\n            _interval > minimumUpkeepInterval,\n            \"interval has to be greater than minimumUpkeepInterval\"\n        );\n        bytes32 tokenPairHash = keccak256(\n            abi.encodePacked(_sellToken, _buyToken)\n        );\n\n        TokenPair storage tokenPair = tokenPairs[tokenPairHash];\n        if (!initializedTokenPairs.contains(tokenPairHash)) {\n            tokenPair.sellToken = _sellToken;\n            tokenPair.buyToken = _buyToken;\n            initializedTokenPairs.add(tokenPairHash);\n            emit TokenPairCreated(_sellToken, _buyToken);\n        }\n        userToTokenPairList[msg.sender].add(tokenPairHash);\n\n        bytes32 orderHash = keccak256(\n            abi.encodePacked(\n                msg.sender,\n                _sellAmount,\n                _interval,\n                _startTimestamp\n            )\n        );\n        RecurringOrder storage order = tokenPair.orders[orderHash];\n        if (!tokenPair.registeredOrders.contains(orderHash)) {\n            order.user = msg.sender;\n            tokenPair.registeredOrders.add(orderHash);\n        }\n        userToOrderHash[msg.sender][tokenPairHash].add(orderHash);\n\n        order.sellAmount = _sellAmount;\n        order.lastExecution = _startTimestamp;\n        order.interval = _interval;\n        emit RecurringOrderUpdated(\n            _sellToken,\n            _buyToken,\n            _sellAmount,\n            _interval,\n            _startTimestamp\n        );\n    }\n\n    /**\n     * Delete a given recurring order\n     *\n     * @param _tokenPairHash    Hash of sell and buyToken addresses identifying the tokenPair.\n     * @param _orderHash        Hash of remaining order data (user address, amount, interval)\n     *\n     */\n    function deleteRecurringOrder(bytes32 _tokenPairHash, bytes32 _orderHash)\n        external\n    {\n        TokenPair storage tokenPair = tokenPairs[_tokenPairHash];\n        require(\n            tokenPair.registeredOrders.contains(_orderHash),\n            \"ORDER TO DELETE DOES NOT EXIST\"\n        );\n        require(\n            tokenPair.orders[_orderHash].user == msg.sender,\n            \"CANNOT DELETE ORDER OF DIFFERENT USER\"\n        );\n        tokenPair.registeredOrders.remove(_orderHash);\n    }\n\n    /**\n     * Utility function for frontend to get data on a given order\n     *\n     * @param _tokenPairHash    Hash of sell and buyToken addresses identifying the tokenPair.\n     * @param _orderHash        Hash of remaining order data (user address, amount, interval)\n     *\n     * @return Instance of RecurringOrder struct containing amount interval etc.\n     *\n     */\n    function getOrderData(bytes32 _tokenPairHash, bytes32 _orderHash)\n        external\n        view\n        returns (RecurringOrder memory)\n    {\n        TokenPair storage tokenPair = tokenPairs[_tokenPairHash];\n        require(\n            tokenPair.registeredOrders.contains(_orderHash),\n            \"ORDER DOES NOT EXIST\"\n        );\n        return tokenPair.orders[_orderHash];\n    }\n\n    /**\n     * Utility function for frontend to get data on a given token pair\n     *\n     * @param _tokenPairHash    Hash of sell and buyToken addresses identifying the tokenPair.\n     *\n     * @return Address of token to be sold\n     * @return Address of token to be bought\n     *\n     */\n    function getTokenPairData(bytes32 _tokenPairHash)\n        external\n        view\n        returns (address, address)\n    {\n        TokenPair storage tokenPair = tokenPairs[_tokenPairHash];\n        return (tokenPair.sellToken, tokenPair.buyToken);\n    }\n\n    /**\n     * Utility function for frontend to get all token pairs for which the given user has set orders\n     *\n     * @param _user    Address of the user for which to query active token pairs\n     *\n     * @return Array of tokenPair-hashes identifying combinations of sell / buyToken for which the user has active orders\n     *\n     */\n    function getTokenPairs(address _user)\n        external\n        view\n        returns (bytes32[] memory)\n    {\n        uint256 numTokenPairs = userToTokenPairList[_user].length();\n        bytes32[] memory tokenPairHashes = new bytes32[](numTokenPairs);\n        for (uint256 i; i < numTokenPairs; i++) {\n            tokenPairHashes[i] = userToTokenPairList[_user].at(i);\n        }\n        return tokenPairHashes;\n    }\n\n    /**\n     * List hashes of active orders for given tokenPair and user\n     *\n     * @param _user             Address of the user for which to query active token pairs\n     * @param _tokenPairHash    Hash of sell and buyToken addresses identifying the tokenPair.\n     *\n     * @return Array of order-hashes identifying the orders set for given user and token pair\n     *\n     */\n    function getOrders(address _user, bytes32 _tokenPairHash)\n        external\n        view\n        returns (bytes32[] memory)\n    {\n        uint256 numOrders = userToOrderHash[_user][_tokenPairHash].length();\n        bytes32[] memory orderHashes = new bytes32[](numOrders);\n        for (uint256 i; i < numOrders; i++) {\n            orderHashes[i] = userToOrderHash[_user][_tokenPairHash].at(i);\n        }\n        return orderHashes;\n    }\n\n    /**\n     * Check if Upkeep is needed and generate performData\n     *\n     *\n     * @return upkeepNeeded     Boolean indicating wether upkeep needs to be performed\n     * @return performData      Serialized array of structs identifying orders to be executed in next upkeep\n     *\n     */\n    function checkUpkeep(bytes calldata)\n        external\n        view\n        override\n        returns (bool upkeepNeeded, bytes memory performData)\n    {\n        if (block.timestamp < lastUpkeep + minimumUpkeepInterval) {\n            return (upkeepNeeded, performData);\n        }\n\n        uint256 numPairs = initializedTokenPairs.length();\n        TokenPairPendingOrders[]\n            memory ordersToExecute = new TokenPairPendingOrders[](numPairs);\n        uint256 l;\n        for (uint256 i = 0; i < numPairs; i++) {\n            bytes32 tokenPairHash = initializedTokenPairs.at(i);\n            uint256 numOrders = tokenPairs[tokenPairHash]\n                .registeredOrders\n                .length();\n            if (numOrders > 0) {\n                bytes32[] memory orders = new bytes32[](numOrders);\n                uint256 k;\n                for (uint256 j; j < numOrders; j++) {\n                    bytes32 orderHash = tokenPairs[tokenPairHash]\n                        .registeredOrders\n                        .at(j);\n                    RecurringOrder memory order = tokenPairs[tokenPairHash]\n                        .orders[orderHash];\n                    if (\n                        block.timestamp > (order.lastExecution + order.interval)\n                    ) {\n                        orders[k] = orderHash;\n                        k++;\n                        upkeepNeeded = true;\n                    }\n                }\n                ordersToExecute[l] = TokenPairPendingOrders(\n                    tokenPairHash,\n                    orders\n                );\n                l++;\n            }\n        }\n        performData = abi.encode(ordersToExecute);\n    }\n\n    /**\n     * Perform Upkeep executing all pending orders\n     *\n     * @param performData      Serialized array of structs identifying orders to be executed as returned by checkUpkeep\n     *\n     */\n    function performUpkeep(bytes calldata performData) external override {\n        TokenPairPendingOrders[] memory ordersToExecute = abi.decode(\n            performData,\n            (TokenPairPendingOrders[])\n        );\n        if (ordersToExecute.length > 0) {\n            _executeOrdersForAllTokenPairs(ordersToExecute);\n        }\n    }\n\n    /**\n     * Internal helper function to execute all pending orders for all token pairs\n     *\n     * @param allPendingOrders   Array of structs with one element for each token pair that has pending orders. Each element contains a list of order hashes that need to be executed for this token pair\n     *\n     */\n    function _executeOrdersForAllTokenPairs(\n        TokenPairPendingOrders[] memory allPendingOrders\n    ) internal {\n        for (uint256 i; i < allPendingOrders.length; i++) {\n            TokenPairPendingOrders\n                memory tokenPairPendingOrders = allPendingOrders[i];\n            if (tokenPairPendingOrders.tokenPairHash == bytes32(0)) break;\n            _executeOrdersForSingleTokenPair(tokenPairPendingOrders);\n        }\n    }\n\n    /**\n     * Execute orders for one token pair\n     *\n     * @param pendingOrders   Struct containing tokenPair hash and list of order hashes that need to be executed for this token pair.\n     *\n     */\n    function _executeOrdersForSingleTokenPair(\n        TokenPairPendingOrders memory pendingOrders\n    ) internal {\n        if (pendingOrders.orders.length == 0) return;\n        if (!initializedTokenPairs.contains(pendingOrders.tokenPairHash))\n            return;\n\n        TokenPair storage tokenPair = tokenPairs[pendingOrders.tokenPairHash];\n        IERC20 sellToken = IERC20(tokenPair.sellToken);\n        IERC20 buyToken = IERC20(tokenPair.buyToken);\n\n        for (uint256 i; i < pendingOrders.orders.length; i++) {\n            bytes32 orderHash = pendingOrders.orders[i];\n\n            // ZeroHash signals last order to be executed\n            if (orderHash == bytes32(0)) break;\n            // Check that order is registered / not deleted\n            if (!tokenPair.registeredOrders.contains(orderHash)) break;\n\n            RecurringOrder storage recurringOrder = tokenPair.orders[orderHash];\n\n            //Check that order is actually ready to be excuted\n            if (\n                block.timestamp <=\n                (recurringOrder.lastExecution + recurringOrder.interval)\n            ) break; \n\n            uint256 sellAmount = recurringOrder.sellAmount;\n            address user = recurringOrder.user;\n            bool success = swapExactTokensForTokens(\n                sellToken,\n                buyToken,\n                sellAmount,\n                user\n            );\n            if (success) {\n                recurringOrder.lastExecution = block.timestamp;\n                emit SwapSucceeded(pendingOrders.tokenPairHash, orderHash);\n            } else {\n                emit SwapFailed(pendingOrders.tokenPairHash, orderHash);\n            }\n        }\n    }\n}\n",
  "sourcePath": "contracts/Trickle.sol",
  "type": "contract"
}