{
  "abi": [
    {
      "inputs": [
        {
          "internalType": "uint256",
          "name": "updateInterval",
          "type": "uint256"
        }
      ],
      "stateMutability": "nonpayable",
      "type": "constructor"
    },
    {
      "inputs": [
        {
          "internalType": "uint256",
          "name": "",
          "type": "uint256"
        }
      ],
      "name": "allowedTokens",
      "outputs": [
        {
          "internalType": "address",
          "name": "",
          "type": "address"
        }
      ],
      "stateMutability": "view",
      "type": "function"
    },
    {
      "inputs": [
        {
          "internalType": "bytes",
          "name": "checkData",
          "type": "bytes"
        }
      ],
      "name": "checkUpkeep",
      "outputs": [
        {
          "internalType": "bool",
          "name": "upkeepNeeded",
          "type": "bool"
        },
        {
          "internalType": "bytes",
          "name": "performData",
          "type": "bytes"
        }
      ],
      "stateMutability": "view",
      "type": "function"
    },
    {
      "inputs": [],
      "name": "counter",
      "outputs": [
        {
          "internalType": "uint256",
          "name": "",
          "type": "uint256"
        }
      ],
      "stateMutability": "view",
      "type": "function"
    },
    {
      "inputs": [],
      "name": "interval",
      "outputs": [
        {
          "internalType": "uint256",
          "name": "",
          "type": "uint256"
        }
      ],
      "stateMutability": "view",
      "type": "function"
    },
    {
      "inputs": [],
      "name": "lastTimeStamp",
      "outputs": [
        {
          "internalType": "uint256",
          "name": "",
          "type": "uint256"
        }
      ],
      "stateMutability": "view",
      "type": "function"
    },
    {
      "inputs": [
        {
          "internalType": "bytes",
          "name": "performData",
          "type": "bytes"
        }
      ],
      "name": "performUpkeep",
      "outputs": [],
      "stateMutability": "nonpayable",
      "type": "function"
    },
    {
      "inputs": [
        {
          "internalType": "uint256",
          "name": "_amount",
          "type": "uint256"
        },
        {
          "internalType": "uint256",
          "name": "_dca_interval",
          "type": "uint256"
        }
      ],
      "name": "setDca",
      "outputs": [],
      "stateMutability": "nonpayable",
      "type": "function"
    },
    {
      "inputs": [
        {
          "internalType": "address",
          "name": "",
          "type": "address"
        },
        {
          "internalType": "address",
          "name": "",
          "type": "address"
        }
      ],
      "name": "stakingBalance",
      "outputs": [
        {
          "internalType": "uint256",
          "name": "",
          "type": "uint256"
        }
      ],
      "stateMutability": "view",
      "type": "function"
    },
    {
      "inputs": [
        {
          "internalType": "address",
          "name": "",
          "type": "address"
        }
      ],
      "name": "user_to_amount",
      "outputs": [
        {
          "internalType": "uint256",
          "name": "",
          "type": "uint256"
        }
      ],
      "stateMutability": "view",
      "type": "function"
    },
    {
      "inputs": [
        {
          "internalType": "address",
          "name": "",
          "type": "address"
        }
      ],
      "name": "user_to_interval",
      "outputs": [
        {
          "internalType": "uint256",
          "name": "",
          "type": "uint256"
        }
      ],
      "stateMutability": "view",
      "type": "function"
    }
  ],
  "bytecode": "60a060405234801561001057600080fd5b5060405161056138038061056183398101604081905261002f9161003f565b6080524260015560008055610058565b60006020828403121561005157600080fd5b5051919050565b6080516104e761007a600039600081816101ac015261027e01526104e76000f3fe608060405234801561001057600080fd5b506004361061009e5760003560e01c80635e5f2e26116100665780635e5f2e261461013257806361bc221a1461015d5780636e04ff0d146101665780637bdb76b614610187578063947a36fb146101a757600080fd5b8063209c6e5b146100a357806329161a00146100b85780633f3b3b27146100f65780633f774675146100ff5780634585e33b1461011f575b600080fd5b6100b66100b13660046102ef565b6101ce565b005b6100e36100c636600461032d565b600560209081526000928352604080842090915290825290205481565b6040519081526020015b60405180910390f35b6100e360015481565b6100e361010d366004610360565b60026020526000908152604090205481565b6100b661012d366004610382565b610235565b6101456101403660046103f4565b61024e565b6040516001600160a01b0390911681526020016100ed565b6100e360005481565b610179610174366004610382565b610278565b6040516100ed92919061040d565b6100e3610195366004610360565b60036020526000908152604090205481565b6100e37f000000000000000000000000000000000000000000000000000000000000000081565b600082116102175760405162461bcd60e51b81526020600482015260126024820152710616d6f756e742063616e6e6f7420626520360741b604482015260640160405180910390fd5b33600090815260026020908152604080832093909355600390522055565b42600190815560005461024791610482565b6000555050565b6004818154811061025e57600080fd5b6000918252602090912001546001600160a01b0316905081565b600060607f0000000000000000000000000000000000000000000000000000000000000000600154426102ab919061049a565b11915083838080601f016020809104026020016040519081016040528093929190818152602001838380828437600092019190915250949792965091945050505050565b6000806040838503121561030257600080fd5b50508035926020909101359150565b80356001600160a01b038116811461032857600080fd5b919050565b6000806040838503121561034057600080fd5b61034983610311565b915061035760208401610311565b90509250929050565b60006020828403121561037257600080fd5b61037b82610311565b9392505050565b6000806020838503121561039557600080fd5b823567ffffffffffffffff808211156103ad57600080fd5b818501915085601f8301126103c157600080fd5b8135818111156103d057600080fd5b8660208285010111156103e257600080fd5b60209290920196919550909350505050565b60006020828403121561040657600080fd5b5035919050565b821515815260006020604081840152835180604085015260005b8181101561044357858101830151858201606001528201610427565b81811115610455576000606083870101525b50601f01601f191692909201606001949350505050565b634e487b7160e01b600052601160045260246000fd5b600082198211156104955761049561046c565b500190565b6000828210156104ac576104ac61046c565b50039056fea2646970667358221220e460eecc88ee66fe916737869f75fd3dc8c0c63f7ae3f26dcfe6ce50bacfef4c64736f6c63430008090033",
  "bytecodeSha1": "2b9a7899ca45c61c98ec2e832acb05174efef0d2",
  "compiler": {
    "evm_version": "istanbul",
    "optimizer": {
      "enabled": true,
      "runs": 200
    },
    "version": "0.8.9+commit.e5eed63a"
  },
  "contractName": "Trickle",
  "language": "Solidity",
  "natspec": {
    "kind": "dev",
    "methods": {},
    "version": 1
  },
  "opcodes": "PUSH1 0x80 PUSH1 0x40 MSTORE CALLVALUE DUP1 ISZERO PUSH2 0x10 JUMPI PUSH1 0x0 DUP1 REVERT JUMPDEST POP PUSH1 0x4 CALLDATASIZE LT PUSH2 0x9E JUMPI PUSH1 0x0 CALLDATALOAD PUSH1 0xE0 SHR DUP1 PUSH4 0x5E5F2E26 GT PUSH2 0x66 JUMPI DUP1 PUSH4 0x5E5F2E26 EQ PUSH2 0x132 JUMPI DUP1 PUSH4 0x61BC221A EQ PUSH2 0x15D JUMPI DUP1 PUSH4 0x6E04FF0D EQ PUSH2 0x166 JUMPI DUP1 PUSH4 0x7BDB76B6 EQ PUSH2 0x187 JUMPI DUP1 PUSH4 0x947A36FB EQ PUSH2 0x1A7 JUMPI PUSH1 0x0 DUP1 REVERT JUMPDEST DUP1 PUSH4 0x209C6E5B EQ PUSH2 0xA3 JUMPI DUP1 PUSH4 0x29161A00 EQ PUSH2 0xB8 JUMPI DUP1 PUSH4 0x3F3B3B27 EQ PUSH2 0xF6 JUMPI DUP1 PUSH4 0x3F774675 EQ PUSH2 0xFF JUMPI DUP1 PUSH4 0x4585E33B EQ PUSH2 0x11F JUMPI JUMPDEST PUSH1 0x0 DUP1 REVERT JUMPDEST PUSH2 0xB6 PUSH2 0xB1 CALLDATASIZE PUSH1 0x4 PUSH2 0x2EF JUMP JUMPDEST PUSH2 0x1CE JUMP JUMPDEST STOP JUMPDEST PUSH2 0xE3 PUSH2 0xC6 CALLDATASIZE PUSH1 0x4 PUSH2 0x32D JUMP JUMPDEST PUSH1 0x5 PUSH1 0x20 SWAP1 DUP2 MSTORE PUSH1 0x0 SWAP3 DUP4 MSTORE PUSH1 0x40 DUP1 DUP5 KECCAK256 SWAP1 SWAP2 MSTORE SWAP1 DUP3 MSTORE SWAP1 KECCAK256 SLOAD DUP2 JUMP JUMPDEST PUSH1 0x40 MLOAD SWAP1 DUP2 MSTORE PUSH1 0x20 ADD JUMPDEST PUSH1 0x40 MLOAD DUP1 SWAP2 SUB SWAP1 RETURN JUMPDEST PUSH2 0xE3 PUSH1 0x1 SLOAD DUP2 JUMP JUMPDEST PUSH2 0xE3 PUSH2 0x10D CALLDATASIZE PUSH1 0x4 PUSH2 0x360 JUMP JUMPDEST PUSH1 0x2 PUSH1 0x20 MSTORE PUSH1 0x0 SWAP1 DUP2 MSTORE PUSH1 0x40 SWAP1 KECCAK256 SLOAD DUP2 JUMP JUMPDEST PUSH2 0xB6 PUSH2 0x12D CALLDATASIZE PUSH1 0x4 PUSH2 0x382 JUMP JUMPDEST PUSH2 0x235 JUMP JUMPDEST PUSH2 0x145 PUSH2 0x140 CALLDATASIZE PUSH1 0x4 PUSH2 0x3F4 JUMP JUMPDEST PUSH2 0x24E JUMP JUMPDEST PUSH1 0x40 MLOAD PUSH1 0x1 PUSH1 0x1 PUSH1 0xA0 SHL SUB SWAP1 SWAP2 AND DUP2 MSTORE PUSH1 0x20 ADD PUSH2 0xED JUMP JUMPDEST PUSH2 0xE3 PUSH1 0x0 SLOAD DUP2 JUMP JUMPDEST PUSH2 0x179 PUSH2 0x174 CALLDATASIZE PUSH1 0x4 PUSH2 0x382 JUMP JUMPDEST PUSH2 0x278 JUMP JUMPDEST PUSH1 0x40 MLOAD PUSH2 0xED SWAP3 SWAP2 SWAP1 PUSH2 0x40D JUMP JUMPDEST PUSH2 0xE3 PUSH2 0x195 CALLDATASIZE PUSH1 0x4 PUSH2 0x360 JUMP JUMPDEST PUSH1 0x3 PUSH1 0x20 MSTORE PUSH1 0x0 SWAP1 DUP2 MSTORE PUSH1 0x40 SWAP1 KECCAK256 SLOAD DUP2 JUMP JUMPDEST PUSH2 0xE3 PUSH32 0x0 DUP2 JUMP JUMPDEST PUSH1 0x0 DUP3 GT PUSH2 0x217 JUMPI PUSH1 0x40 MLOAD PUSH3 0x461BCD PUSH1 0xE5 SHL DUP2 MSTORE PUSH1 0x20 PUSH1 0x4 DUP3 ADD MSTORE PUSH1 0x12 PUSH1 0x24 DUP3 ADD MSTORE PUSH18 0x616D6F756E742063616E6E6F74206265203 PUSH1 0x74 SHL PUSH1 0x44 DUP3 ADD MSTORE PUSH1 0x64 ADD PUSH1 0x40 MLOAD DUP1 SWAP2 SUB SWAP1 REVERT JUMPDEST CALLER PUSH1 0x0 SWAP1 DUP2 MSTORE PUSH1 0x2 PUSH1 0x20 SWAP1 DUP2 MSTORE PUSH1 0x40 DUP1 DUP4 KECCAK256 SWAP4 SWAP1 SWAP4 SSTORE PUSH1 0x3 SWAP1 MSTORE KECCAK256 SSTORE JUMP JUMPDEST TIMESTAMP PUSH1 0x1 SWAP1 DUP2 SSTORE PUSH1 0x0 SLOAD PUSH2 0x247 SWAP2 PUSH2 0x482 JUMP JUMPDEST PUSH1 0x0 SSTORE POP POP JUMP JUMPDEST PUSH1 0x4 DUP2 DUP2 SLOAD DUP2 LT PUSH2 0x25E JUMPI PUSH1 0x0 DUP1 REVERT JUMPDEST PUSH1 0x0 SWAP2 DUP3 MSTORE PUSH1 0x20 SWAP1 SWAP2 KECCAK256 ADD SLOAD PUSH1 0x1 PUSH1 0x1 PUSH1 0xA0 SHL SUB AND SWAP1 POP DUP2 JUMP JUMPDEST PUSH1 0x0 PUSH1 0x60 PUSH32 0x0 PUSH1 0x1 SLOAD TIMESTAMP PUSH2 0x2AB SWAP2 SWAP1 PUSH2 0x49A JUMP JUMPDEST GT SWAP2 POP DUP4 DUP4 DUP1 DUP1 PUSH1 0x1F ADD PUSH1 0x20 DUP1 SWAP2 DIV MUL PUSH1 0x20 ADD PUSH1 0x40 MLOAD SWAP1 DUP2 ADD PUSH1 0x40 MSTORE DUP1 SWAP4 SWAP3 SWAP2 SWAP1 DUP2 DUP2 MSTORE PUSH1 0x20 ADD DUP4 DUP4 DUP1 DUP3 DUP5 CALLDATACOPY PUSH1 0x0 SWAP3 ADD SWAP2 SWAP1 SWAP2 MSTORE POP SWAP5 SWAP8 SWAP3 SWAP7 POP SWAP2 SWAP5 POP POP POP POP POP JUMP JUMPDEST PUSH1 0x0 DUP1 PUSH1 0x40 DUP4 DUP6 SUB SLT ISZERO PUSH2 0x302 JUMPI PUSH1 0x0 DUP1 REVERT JUMPDEST POP POP DUP1 CALLDATALOAD SWAP3 PUSH1 0x20 SWAP1 SWAP2 ADD CALLDATALOAD SWAP2 POP JUMP JUMPDEST DUP1 CALLDATALOAD PUSH1 0x1 PUSH1 0x1 PUSH1 0xA0 SHL SUB DUP2 AND DUP2 EQ PUSH2 0x328 JUMPI PUSH1 0x0 DUP1 REVERT JUMPDEST SWAP2 SWAP1 POP JUMP JUMPDEST PUSH1 0x0 DUP1 PUSH1 0x40 DUP4 DUP6 SUB SLT ISZERO PUSH2 0x340 JUMPI PUSH1 0x0 DUP1 REVERT JUMPDEST PUSH2 0x349 DUP4 PUSH2 0x311 JUMP JUMPDEST SWAP2 POP PUSH2 0x357 PUSH1 0x20 DUP5 ADD PUSH2 0x311 JUMP JUMPDEST SWAP1 POP SWAP3 POP SWAP3 SWAP1 POP JUMP JUMPDEST PUSH1 0x0 PUSH1 0x20 DUP3 DUP5 SUB SLT ISZERO PUSH2 0x372 JUMPI PUSH1 0x0 DUP1 REVERT JUMPDEST PUSH2 0x37B DUP3 PUSH2 0x311 JUMP JUMPDEST SWAP4 SWAP3 POP POP POP JUMP JUMPDEST PUSH1 0x0 DUP1 PUSH1 0x20 DUP4 DUP6 SUB SLT ISZERO PUSH2 0x395 JUMPI PUSH1 0x0 DUP1 REVERT JUMPDEST DUP3 CALLDATALOAD PUSH8 0xFFFFFFFFFFFFFFFF DUP1 DUP3 GT ISZERO PUSH2 0x3AD JUMPI PUSH1 0x0 DUP1 REVERT JUMPDEST DUP2 DUP6 ADD SWAP2 POP DUP6 PUSH1 0x1F DUP4 ADD SLT PUSH2 0x3C1 JUMPI PUSH1 0x0 DUP1 REVERT JUMPDEST DUP2 CALLDATALOAD DUP2 DUP2 GT ISZERO PUSH2 0x3D0 JUMPI PUSH1 0x0 DUP1 REVERT JUMPDEST DUP7 PUSH1 0x20 DUP3 DUP6 ADD ADD GT ISZERO PUSH2 0x3E2 JUMPI PUSH1 0x0 DUP1 REVERT JUMPDEST PUSH1 0x20 SWAP3 SWAP1 SWAP3 ADD SWAP7 SWAP2 SWAP6 POP SWAP1 SWAP4 POP POP POP POP JUMP JUMPDEST PUSH1 0x0 PUSH1 0x20 DUP3 DUP5 SUB SLT ISZERO PUSH2 0x406 JUMPI PUSH1 0x0 DUP1 REVERT JUMPDEST POP CALLDATALOAD SWAP2 SWAP1 POP JUMP JUMPDEST DUP3 ISZERO ISZERO DUP2 MSTORE PUSH1 0x0 PUSH1 0x20 PUSH1 0x40 DUP2 DUP5 ADD MSTORE DUP4 MLOAD DUP1 PUSH1 0x40 DUP6 ADD MSTORE PUSH1 0x0 JUMPDEST DUP2 DUP2 LT ISZERO PUSH2 0x443 JUMPI DUP6 DUP2 ADD DUP4 ADD MLOAD DUP6 DUP3 ADD PUSH1 0x60 ADD MSTORE DUP3 ADD PUSH2 0x427 JUMP JUMPDEST DUP2 DUP2 GT ISZERO PUSH2 0x455 JUMPI PUSH1 0x0 PUSH1 0x60 DUP4 DUP8 ADD ADD MSTORE JUMPDEST POP PUSH1 0x1F ADD PUSH1 0x1F NOT AND SWAP3 SWAP1 SWAP3 ADD PUSH1 0x60 ADD SWAP5 SWAP4 POP POP POP POP JUMP JUMPDEST PUSH4 0x4E487B71 PUSH1 0xE0 SHL PUSH1 0x0 MSTORE PUSH1 0x11 PUSH1 0x4 MSTORE PUSH1 0x24 PUSH1 0x0 REVERT JUMPDEST PUSH1 0x0 DUP3 NOT DUP3 GT ISZERO PUSH2 0x495 JUMPI PUSH2 0x495 PUSH2 0x46C JUMP JUMPDEST POP ADD SWAP1 JUMP JUMPDEST PUSH1 0x0 DUP3 DUP3 LT ISZERO PUSH2 0x4AC JUMPI PUSH2 0x4AC PUSH2 0x46C JUMP JUMPDEST POP SUB SWAP1 JUMP INVALID LOG2 PUSH5 0x6970667358 0x22 SLT KECCAK256 0xE4 PUSH1 0xEE 0xCC DUP9 0xEE PUSH7 0xFE916737869F75 REVERT RETURNDATASIZE 0xC8 0xC0 0xC6 EXTCODEHASH PUSH27 0xE3F26DCFE6CE50BACFEF4C64736F6C634300080900330000000000 ",
  "sha1": "7249ce5120fe237b0578fcb17ab2d610d687a31c",
  "source": "// SPDX-License-Identifier: MIT\npragma solidity ^0.8.0;\n\ninterface KeeperCompatibleInterface {\n    function checkUpkeep(bytes calldata checkData)\n        external\n        returns (bool upkeepNeeded, bytes memory performData);\n\n    function performUpkeep(bytes calldata performData) external;\n}\n\ncontract Trickle is KeeperCompatibleInterface {\n    uint256 public counter; // Public counter variable\n\n    // Use an interval in seconds and a timestamp to slow execution of Upkeep\n    uint256 public immutable interval;\n    uint256 public lastTimeStamp;\n    mapping(address => uint256) public user_to_interval;\n    mapping(address => uint256) public user_to_amount;\n    address[] public allowedTokens;\n    mapping(address => mapping(address => uint256)) public stakingBalance;\n\n    constructor(uint256 updateInterval) {\n        interval = updateInterval;\n        lastTimeStamp = block.timestamp;\n        counter = 0;\n    }\n\n    // TODO: update conntract ABI\n        // address _token_to_buy\n    function setDca(\n        uint256 _amount,\n        uint256 _dca_interval\n    ) public {\n        require(_amount > 0, \"amount cannot be 0\");\n        user_to_interval[msg.sender] = _dca_interval;\n        user_to_amount[msg.sender] = _amount;\n    }\n\n    function checkUpkeep(bytes calldata checkData)\n        external\n        view\n        override\n        returns (bool upkeepNeeded, bytes memory performData)\n    {\n        upkeepNeeded = (block.timestamp - lastTimeStamp) > interval;\n        performData = checkData;\n    }\n\n    function performUpkeep(bytes calldata performData) external override {\n        lastTimeStamp = block.timestamp;\n        counter = counter + 1;\n        performData;\n        // do stuff with user -> interval and user -> amount here\n    }\n}\n\n\n",
  "sourcePath": "contracts/Trickle.sol",
  "type": "contract"
}